{
    "contractName": "FlyEthereum",
    "abi": [
        {
            "inputs": [
                {
                    "internalType": "contract ERC20",
                    "name": "underlying_",
                    "type": "address"
                }
            ],
            "stateMutability": "nonpayable",
            "type": "constructor"
        },
        {
            "anonymous": false,
            "inputs": [
                {
                    "indexed": true,
                    "internalType": "address",
                    "name": "owner",
                    "type": "address"
                },
                {
                    "indexed": true,
                    "internalType": "address",
                    "name": "spender",
                    "type": "address"
                },
                {
                    "indexed": false,
                    "internalType": "uint256",
                    "name": "value",
                    "type": "uint256"
                }
            ],
            "name": "Approval",
            "type": "event"
        },
        {
            "anonymous": false,
            "inputs": [
                {
                    "indexed": true,
                    "internalType": "address",
                    "name": "caller",
                    "type": "address"
                },
                {
                    "indexed": true,
                    "internalType": "address",
                    "name": "owner",
                    "type": "address"
                },
                {
                    "indexed": false,
                    "internalType": "uint256",
                    "name": "assets",
                    "type": "uint256"
                },
                {
                    "indexed": false,
                    "internalType": "uint256",
                    "name": "shares",
                    "type": "uint256"
                }
            ],
            "name": "Deposit",
            "type": "event"
        },
        {
            "anonymous": false,
            "inputs": [
                {
                    "indexed": false,
                    "internalType": "address",
                    "name": "account",
                    "type": "address"
                }
            ],
            "name": "Paused",
            "type": "event"
        },
        {
            "anonymous": false,
            "inputs": [
                {
                    "indexed": true,
                    "internalType": "bytes32",
                    "name": "role",
                    "type": "bytes32"
                },
                {
                    "indexed": true,
                    "internalType": "bytes32",
                    "name": "previousAdminRole",
                    "type": "bytes32"
                },
                {
                    "indexed": true,
                    "internalType": "bytes32",
                    "name": "newAdminRole",
                    "type": "bytes32"
                }
            ],
            "name": "RoleAdminChanged",
            "type": "event"
        },
        {
            "anonymous": false,
            "inputs": [
                {
                    "indexed": true,
                    "internalType": "bytes32",
                    "name": "role",
                    "type": "bytes32"
                },
                {
                    "indexed": true,
                    "internalType": "address",
                    "name": "account",
                    "type": "address"
                },
                {
                    "indexed": true,
                    "internalType": "address",
                    "name": "sender",
                    "type": "address"
                }
            ],
            "name": "RoleGranted",
            "type": "event"
        },
        {
            "anonymous": false,
            "inputs": [
                {
                    "indexed": true,
                    "internalType": "bytes32",
                    "name": "role",
                    "type": "bytes32"
                },
                {
                    "indexed": true,
                    "internalType": "address",
                    "name": "account",
                    "type": "address"
                },
                {
                    "indexed": true,
                    "internalType": "address",
                    "name": "sender",
                    "type": "address"
                }
            ],
            "name": "RoleRevoked",
            "type": "event"
        },
        {
            "anonymous": false,
            "inputs": [
                {
                    "indexed": true,
                    "internalType": "address",
                    "name": "from",
                    "type": "address"
                },
                {
                    "indexed": true,
                    "internalType": "address",
                    "name": "to",
                    "type": "address"
                },
                {
                    "indexed": false,
                    "internalType": "uint256",
                    "name": "value",
                    "type": "uint256"
                }
            ],
            "name": "Transfer",
            "type": "event"
        },
        {
            "anonymous": false,
            "inputs": [
                {
                    "indexed": false,
                    "internalType": "address",
                    "name": "account",
                    "type": "address"
                }
            ],
            "name": "Unpaused",
            "type": "event"
        },
        {
            "anonymous": false,
            "inputs": [
                {
                    "indexed": true,
                    "internalType": "address",
                    "name": "caller",
                    "type": "address"
                },
                {
                    "indexed": true,
                    "internalType": "address",
                    "name": "receiver",
                    "type": "address"
                },
                {
                    "indexed": true,
                    "internalType": "address",
                    "name": "owner",
                    "type": "address"
                },
                {
                    "indexed": false,
                    "internalType": "uint256",
                    "name": "assets",
                    "type": "uint256"
                },
                {
                    "indexed": false,
                    "internalType": "uint256",
                    "name": "shares",
                    "type": "uint256"
                }
            ],
            "name": "Withdraw",
            "type": "event"
        },
        {
            "inputs": [],
            "name": "DEFAULT_ADMIN_ROLE",
            "outputs": [
                {
                    "internalType": "bytes32",
                    "name": "",
                    "type": "bytes32"
                }
            ],
            "stateMutability": "view",
            "type": "function"
        },
        {
            "inputs": [],
            "name": "MINTER_ROLE",
            "outputs": [
                {
                    "internalType": "bytes32",
                    "name": "",
                    "type": "bytes32"
                }
            ],
            "stateMutability": "view",
            "type": "function"
        },
        {
            "inputs": [],
            "name": "PAUSER_ROLE",
            "outputs": [
                {
                    "internalType": "bytes32",
                    "name": "",
                    "type": "bytes32"
                }
            ],
            "stateMutability": "view",
            "type": "function"
        },
        {
            "inputs": [
                {
                    "internalType": "address",
                    "name": "owner",
                    "type": "address"
                },
                {
                    "internalType": "address",
                    "name": "spender",
                    "type": "address"
                }
            ],
            "name": "allowance",
            "outputs": [
                {
                    "internalType": "uint256",
                    "name": "",
                    "type": "uint256"
                }
            ],
            "stateMutability": "view",
            "type": "function"
        },
        {
            "inputs": [
                {
                    "internalType": "address",
                    "name": "spender",
                    "type": "address"
                },
                {
                    "internalType": "uint256",
                    "name": "amount",
                    "type": "uint256"
                }
            ],
            "name": "approve",
            "outputs": [
                {
                    "internalType": "bool",
                    "name": "",
                    "type": "bool"
                }
            ],
            "stateMutability": "nonpayable",
            "type": "function"
        },
        {
            "inputs": [],
            "name": "asset",
            "outputs": [
                {
                    "internalType": "address",
                    "name": "",
                    "type": "address"
                }
            ],
            "stateMutability": "view",
            "type": "function"
        },
        {
            "inputs": [
                {
                    "internalType": "address",
                    "name": "account",
                    "type": "address"
                }
            ],
            "name": "balanceOf",
            "outputs": [
                {
                    "internalType": "uint256",
                    "name": "",
                    "type": "uint256"
                }
            ],
            "stateMutability": "view",
            "type": "function"
        },
        {
            "inputs": [
                {
                    "internalType": "uint256",
                    "name": "amount",
                    "type": "uint256"
                }
            ],
            "name": "burn",
            "outputs": [],
            "stateMutability": "nonpayable",
            "type": "function"
        },
        {
            "inputs": [
                {
                    "internalType": "address",
                    "name": "account",
                    "type": "address"
                },
                {
                    "internalType": "uint256",
                    "name": "amount",
                    "type": "uint256"
                }
            ],
            "name": "burnFrom",
            "outputs": [],
            "stateMutability": "nonpayable",
            "type": "function"
        },
        {
            "inputs": [
                {
                    "internalType": "uint256",
                    "name": "shares",
                    "type": "uint256"
                }
            ],
            "name": "convertToAssets",
            "outputs": [
                {
                    "internalType": "uint256",
                    "name": "assets",
                    "type": "uint256"
                }
            ],
            "stateMutability": "view",
            "type": "function"
        },
        {
            "inputs": [
                {
                    "internalType": "uint256",
                    "name": "assets",
                    "type": "uint256"
                }
            ],
            "name": "convertToShares",
            "outputs": [
                {
                    "internalType": "uint256",
                    "name": "shares",
                    "type": "uint256"
                }
            ],
            "stateMutability": "view",
            "type": "function"
        },
        {
            "inputs": [],
            "name": "decimals",
            "outputs": [
                {
                    "internalType": "uint8",
                    "name": "",
                    "type": "uint8"
                }
            ],
            "stateMutability": "pure",
            "type": "function"
        },
        {
            "inputs": [
                {
                    "internalType": "address",
                    "name": "spender",
                    "type": "address"
                },
                {
                    "internalType": "uint256",
                    "name": "subtractedValue",
                    "type": "uint256"
                }
            ],
            "name": "decreaseAllowance",
            "outputs": [
                {
                    "internalType": "bool",
                    "name": "",
                    "type": "bool"
                }
            ],
            "stateMutability": "nonpayable",
            "type": "function"
        },
        {
            "inputs": [
                {
                    "internalType": "uint256",
                    "name": "assets",
                    "type": "uint256"
                },
                {
                    "internalType": "address",
                    "name": "receiver",
                    "type": "address"
                }
            ],
            "name": "deposit",
            "outputs": [
                {
                    "internalType": "uint256",
                    "name": "",
                    "type": "uint256"
                }
            ],
            "stateMutability": "nonpayable",
            "type": "function"
        },
        {
            "inputs": [
                {
                    "internalType": "bytes32",
                    "name": "role",
                    "type": "bytes32"
                }
            ],
            "name": "getRoleAdmin",
            "outputs": [
                {
                    "internalType": "bytes32",
                    "name": "",
                    "type": "bytes32"
                }
            ],
            "stateMutability": "view",
            "type": "function"
        },
        {
            "inputs": [
                {
                    "internalType": "bytes32",
                    "name": "role",
                    "type": "bytes32"
                },
                {
                    "internalType": "address",
                    "name": "account",
                    "type": "address"
                }
            ],
            "name": "grantRole",
            "outputs": [],
            "stateMutability": "nonpayable",
            "type": "function"
        },
        {
            "inputs": [
                {
                    "internalType": "bytes32",
                    "name": "role",
                    "type": "bytes32"
                },
                {
                    "internalType": "address",
                    "name": "account",
                    "type": "address"
                }
            ],
            "name": "hasRole",
            "outputs": [
                {
                    "internalType": "bool",
                    "name": "",
                    "type": "bool"
                }
            ],
            "stateMutability": "view",
            "type": "function"
        },
        {
            "inputs": [
                {
                    "internalType": "address",
                    "name": "spender",
                    "type": "address"
                },
                {
                    "internalType": "uint256",
                    "name": "addedValue",
                    "type": "uint256"
                }
            ],
            "name": "increaseAllowance",
            "outputs": [
                {
                    "internalType": "bool",
                    "name": "",
                    "type": "bool"
                }
            ],
            "stateMutability": "nonpayable",
            "type": "function"
        },
        {
            "inputs": [
                {
                    "internalType": "address",
                    "name": "",
                    "type": "address"
                }
            ],
            "name": "maxDeposit",
            "outputs": [
                {
                    "internalType": "uint256",
                    "name": "",
                    "type": "uint256"
                }
            ],
            "stateMutability": "view",
            "type": "function"
        },
        {
            "inputs": [
                {
                    "internalType": "address",
                    "name": "",
                    "type": "address"
                }
            ],
            "name": "maxMint",
            "outputs": [
                {
                    "internalType": "uint256",
                    "name": "",
                    "type": "uint256"
                }
            ],
            "stateMutability": "view",
            "type": "function"
        },
        {
            "inputs": [
                {
                    "internalType": "address",
                    "name": "owner",
                    "type": "address"
                }
            ],
            "name": "maxRedeem",
            "outputs": [
                {
                    "internalType": "uint256",
                    "name": "",
                    "type": "uint256"
                }
            ],
            "stateMutability": "view",
            "type": "function"
        },
        {
            "inputs": [
                {
                    "internalType": "address",
                    "name": "owner",
                    "type": "address"
                }
            ],
            "name": "maxWithdraw",
            "outputs": [
                {
                    "internalType": "uint256",
                    "name": "",
                    "type": "uint256"
                }
            ],
            "stateMutability": "view",
            "type": "function"
        },
        {
            "inputs": [
                {
                    "internalType": "address",
                    "name": "to",
                    "type": "address"
                },
                {
                    "internalType": "uint256",
                    "name": "amount",
                    "type": "uint256"
                }
            ],
            "name": "mint",
            "outputs": [],
            "stateMutability": "nonpayable",
            "type": "function"
        },
        {
            "inputs": [
                {
                    "internalType": "uint256",
                    "name": "shares",
                    "type": "uint256"
                },
                {
                    "internalType": "address",
                    "name": "receiver",
                    "type": "address"
                }
            ],
            "name": "mint",
            "outputs": [
                {
                    "internalType": "uint256",
                    "name": "",
                    "type": "uint256"
                }
            ],
            "stateMutability": "nonpayable",
            "type": "function"
        },
        {
            "inputs": [],
            "name": "name",
            "outputs": [
                {
                    "internalType": "string",
                    "name": "",
                    "type": "string"
                }
            ],
            "stateMutability": "view",
            "type": "function"
        },
        {
            "inputs": [],
            "name": "pause",
            "outputs": [],
            "stateMutability": "nonpayable",
            "type": "function"
        },
        {
            "inputs": [],
            "name": "paused",
            "outputs": [
                {
                    "internalType": "bool",
                    "name": "",
                    "type": "bool"
                }
            ],
            "stateMutability": "view",
            "type": "function"
        },
        {
            "inputs": [
                {
                    "internalType": "uint256",
                    "name": "assets",
                    "type": "uint256"
                }
            ],
            "name": "previewDeposit",
            "outputs": [
                {
                    "internalType": "uint256",
                    "name": "",
                    "type": "uint256"
                }
            ],
            "stateMutability": "view",
            "type": "function"
        },
        {
            "inputs": [
                {
                    "internalType": "uint256",
                    "name": "shares",
                    "type": "uint256"
                }
            ],
            "name": "previewMint",
            "outputs": [
                {
                    "internalType": "uint256",
                    "name": "",
                    "type": "uint256"
                }
            ],
            "stateMutability": "view",
            "type": "function"
        },
        {
            "inputs": [
                {
                    "internalType": "uint256",
                    "name": "shares",
                    "type": "uint256"
                }
            ],
            "name": "previewRedeem",
            "outputs": [
                {
                    "internalType": "uint256",
                    "name": "",
                    "type": "uint256"
                }
            ],
            "stateMutability": "view",
            "type": "function"
        },
        {
            "inputs": [
                {
                    "internalType": "uint256",
                    "name": "assets",
                    "type": "uint256"
                }
            ],
            "name": "previewWithdraw",
            "outputs": [
                {
                    "internalType": "uint256",
                    "name": "",
                    "type": "uint256"
                }
            ],
            "stateMutability": "view",
            "type": "function"
        },
        {
            "inputs": [
                {
                    "internalType": "uint256",
                    "name": "shares",
                    "type": "uint256"
                },
                {
                    "internalType": "address",
                    "name": "receiver",
                    "type": "address"
                },
                {
                    "internalType": "address",
                    "name": "owner",
                    "type": "address"
                }
            ],
            "name": "redeem",
            "outputs": [
                {
                    "internalType": "uint256",
                    "name": "",
                    "type": "uint256"
                }
            ],
            "stateMutability": "nonpayable",
            "type": "function"
        },
        {
            "inputs": [
                {
                    "internalType": "bytes32",
                    "name": "role",
                    "type": "bytes32"
                },
                {
                    "internalType": "address",
                    "name": "account",
                    "type": "address"
                }
            ],
            "name": "renounceRole",
            "outputs": [],
            "stateMutability": "nonpayable",
            "type": "function"
        },
        {
            "inputs": [
                {
                    "internalType": "bytes32",
                    "name": "role",
                    "type": "bytes32"
                },
                {
                    "internalType": "address",
                    "name": "account",
                    "type": "address"
                }
            ],
            "name": "revokeRole",
            "outputs": [],
            "stateMutability": "nonpayable",
            "type": "function"
        },
        {
            "inputs": [
                {
                    "internalType": "bytes4",
                    "name": "interfaceId",
                    "type": "bytes4"
                }
            ],
            "name": "supportsInterface",
            "outputs": [
                {
                    "internalType": "bool",
                    "name": "",
                    "type": "bool"
                }
            ],
            "stateMutability": "view",
            "type": "function"
        },
        {
            "inputs": [],
            "name": "symbol",
            "outputs": [
                {
                    "internalType": "string",
                    "name": "",
                    "type": "string"
                }
            ],
            "stateMutability": "view",
            "type": "function"
        },
        {
            "inputs": [],
            "name": "totalAssets",
            "outputs": [
                {
                    "internalType": "uint256",
                    "name": "",
                    "type": "uint256"
                }
            ],
            "stateMutability": "view",
            "type": "function"
        },
        {
            "inputs": [],
            "name": "totalSupply",
            "outputs": [
                {
                    "internalType": "uint256",
                    "name": "",
                    "type": "uint256"
                }
            ],
            "stateMutability": "view",
            "type": "function"
        },
        {
            "inputs": [
                {
                    "internalType": "address",
                    "name": "to",
                    "type": "address"
                },
                {
                    "internalType": "uint256",
                    "name": "amount",
                    "type": "uint256"
                }
            ],
            "name": "transfer",
            "outputs": [
                {
                    "internalType": "bool",
                    "name": "",
                    "type": "bool"
                }
            ],
            "stateMutability": "nonpayable",
            "type": "function"
        },
        {
            "inputs": [
                {
                    "internalType": "address",
                    "name": "from",
                    "type": "address"
                },
                {
                    "internalType": "address",
                    "name": "to",
                    "type": "address"
                },
                {
                    "internalType": "uint256",
                    "name": "amount",
                    "type": "uint256"
                }
            ],
            "name": "transferFrom",
            "outputs": [
                {
                    "internalType": "bool",
                    "name": "",
                    "type": "bool"
                }
            ],
            "stateMutability": "nonpayable",
            "type": "function"
        },
        {
            "inputs": [],
            "name": "unpause",
            "outputs": [],
            "stateMutability": "nonpayable",
            "type": "function"
        },
        {
            "inputs": [
                {
                    "internalType": "uint256",
                    "name": "assets",
                    "type": "uint256"
                },
                {
                    "internalType": "address",
                    "name": "receiver",
                    "type": "address"
                },
                {
                    "internalType": "address",
                    "name": "owner",
                    "type": "address"
                }
            ],
            "name": "withdraw",
            "outputs": [
                {
                    "internalType": "uint256",
                    "name": "",
                    "type": "uint256"
                }
            ],
            "stateMutability": "nonpayable",
            "type": "function"
        }
    ],
    "bytecode": "60a06040523480156200001157600080fd5b50604051620024983803806200249883398101604081905262000034916200026c565b604080518082018252600b81526a466c79457468657265756d60a81b6020808301918252835180850190945260068452650ccd8f28aa8960d31b908401528151849391620000869160039190620001c6565b5080516200009c906004906020840190620001c6565b50506005805460ff19169055506001600160a01b0316608052620000c260003362000121565b620000ee7f65d7a28e3265b37a6474929f336521b332c1681b933f6cb9f3376673440d862a3362000121565b6200011a7f9f2df0fed2c77648de5860a4cc508cd0818c85b8b8a1ab4ceeef8d981c8956a63362000121565b50620002db565b60008281526006602090815260408083206001600160a01b038516845290915290205460ff16620001c25760008281526006602090815260408083206001600160a01b03851684529091529020805460ff19166001179055620001813390565b6001600160a01b0316816001600160a01b0316837f2f8788117e7eff1d82e926ec794901d17c78024a50270940304540a733656f0d60405160405180910390a45b5050565b828054620001d4906200029e565b90600052602060002090601f016020900481019282620001f8576000855562000243565b82601f106200021357805160ff191683800117855562000243565b8280016001018555821562000243579182015b828111156200024357825182559160200191906001019062000226565b506200025192915062000255565b5090565b5b8082111562000251576000815560010162000256565b6000602082840312156200027f57600080fd5b81516001600160a01b03811681146200029757600080fd5b9392505050565b600181811c90821680620002b357607f821691505b60208210811415620002d557634e487b7160e01b600052602260045260246000fd5b50919050565b60805161217e6200031a60003960008181610371015281816105c001528181610c3801528181610e47015281816114d601526115d3015261217e6000f3fe608060405234801561001057600080fd5b506004361061025e5760003560e01c806370a0823111610146578063b460af94116100c3578063d539139311610087578063d539139314610521578063d547741f14610548578063d905777e1461055b578063dd62ed3e1461056e578063e63ab1e914610581578063ef8b30f7146104fb57600080fd5b8063b460af94146104c0578063ba087652146104d3578063c63d75b6146104e6578063c6e6f592146104fb578063ce96cb771461050e57600080fd5b806395d89b411161010a57806395d89b4114610477578063a217fddf1461047f578063a457c2d714610487578063a9059cbb1461049a578063b3d7f6b9146104ad57600080fd5b806370a082311461040d57806379cc6790146104365780638456cb591461044957806391d148541461045157806394bf804d1461046457600080fd5b8063313ce567116101df578063402d267d116101a3578063402d267d146103b657806340c10f19146103c957806342966c68146103dc5780634cdad506146102b65780635c975abb146103ef5780636e553f65146103fa57600080fd5b8063313ce5671461034257806336568abe1461035157806338d52e0f14610364578063395093511461039b5780633f4ba83a146103ae57600080fd5b80630a28a477116102265780630a28a477146102dc57806318160ddd146102ef57806323b872dd146102f7578063248a9ca31461030a5780632f2ff15d1461032d57600080fd5b806301e1d1141461026357806301ffc9a71461027e57806306fdde03146102a157806307a2d13a146102b6578063095ea7b3146102c9575b600080fd5b61026b6105a8565b6040519081526020015b60405180910390f35b61029161028c366004611c87565b610647565b6040519015158152602001610275565b6102a961067e565b6040516102759190611cdd565b61026b6102c4366004611d10565b610710565b6102916102d7366004611d45565b61071d565b61026b6102ea366004611d10565b610735565b60025461026b565b610291610305366004611d6f565b610742565b61026b610318366004611d10565b60009081526006602052604090206001015490565b61034061033b366004611dab565b610768565b005b60405160128152602001610275565b61034061035f366004611dab565b610792565b6040516001600160a01b037f0000000000000000000000000000000000000000000000000000000000000000168152602001610275565b6102916103a9366004611d45565b610815565b610340610837565b61026b6103c4366004611dd7565b61086c565b6103406103d7366004611d45565b61088a565b6103406103ea366004611d10565b6108be565b60055460ff16610291565b61026b610408366004611dab565b6108c8565b61026b61041b366004611dd7565b6001600160a01b031660009081526020819052604090205490565b610340610444366004611d45565b61093b565b610340610950565b61029161045f366004611dab565b610982565b61026b610472366004611dab565b6109ad565b6102a96109c7565b61026b600081565b610291610495366004611d45565b6109d6565b6102916104a8366004611d45565b610a5c565b61026b6104bb366004611d10565b610a6a565b61026b6104ce366004611df2565b610a77565b61026b6104e1366004611df2565b610af3565b61026b6104f4366004611dd7565b5060001990565b61026b610509366004611d10565b610b67565b61026b61051c366004611dd7565b610b74565b61026b7f9f2df0fed2c77648de5860a4cc508cd0818c85b8b8a1ab4ceeef8d981c8956a681565b610340610556366004611dab565b610b98565b61026b610569366004611dd7565b610bbd565b61026b61057c366004611e2e565b610bdb565b61026b7f65d7a28e3265b37a6474929f336521b332c1681b933f6cb9f3376673440d862a81565b6040516370a0823160e01b81523060048201526000907f00000000000000000000000000000000000000000000000000000000000000006001600160a01b0316906370a082319060240160206040518083038186803b15801561060a57600080fd5b505afa15801561061e573d6000803e3d6000fd5b505050506040513d601f19601f820116820180604052508101906106429190611e58565b905090565b60006001600160e01b03198216637965db0b60e01b148061067857506301ffc9a760e01b6001600160e01b03198316145b92915050565b60606003805461068d90611e71565b80601f01602080910402602001604051908101604052809291908181526020018280546106b990611e71565b80156107065780601f106106db57610100808354040283529160200191610706565b820191906000526020600020905b8154815290600101906020018083116106e957829003601f168201915b5050505050905090565b6000610678826000610c06565b60003361072b818585610ce9565b5060019392505050565b6000610678826001610e0d565b600033610750858285610ed6565b61075b858585610f50565b60019150505b9392505050565b60008281526006602052604090206001015461078381611129565b61078d8383611133565b505050565b6001600160a01b03811633146108075760405162461bcd60e51b815260206004820152602f60248201527f416363657373436f6e74726f6c3a2063616e206f6e6c792072656e6f756e636560448201526e103937b632b9903337b91039b2b63360891b60648201526084015b60405180910390fd5b61081182826111b9565b5050565b60003361072b8185856108288383610bdb565b6108329190611ec2565b610ce9565b7f65d7a28e3265b37a6474929f336521b332c1681b933f6cb9f3376673440d862a61086181611129565b610869611220565b50565b6000610876611272565b610881576000610678565b60001992915050565b7f9f2df0fed2c77648de5860a4cc508cd0818c85b8b8a1ab4ceeef8d981c8956a66108b481611129565b61078d838361128c565b6108693382611377565b60006108d38261086c565b8311156109225760405162461bcd60e51b815260206004820152601e60248201527f455243343632363a206465706f736974206d6f7265207468616e206d6178000060448201526064016107fe565b600061092d84610b67565b9050610761338486846114d1565b610946823383610ed6565b6108118282611377565b7f65d7a28e3265b37a6474929f336521b332c1681b933f6cb9f3376673440d862a61097a81611129565b610869611563565b60009182526006602090815260408084206001600160a01b0393909316845291905290205460ff1690565b6000806109b984610a6a565b9050610761338483876114d1565b60606004805461068d90611e71565b600033816109e48286610bdb565b905083811015610a445760405162461bcd60e51b815260206004820152602560248201527f45524332303a2064656372656173656420616c6c6f77616e63652062656c6f77604482015264207a65726f60d81b60648201526084016107fe565b610a518286868403610ce9565b506001949350505050565b60003361072b818585610f50565b6000610678826001610c06565b6000610a8282610b74565b841115610ad15760405162461bcd60e51b815260206004820152601f60248201527f455243343632363a207769746864726177206d6f7265207468616e206d61780060448201526064016107fe565b6000610adc85610735565b9050610aeb33858588856115a0565b949350505050565b6000610afe82610bbd565b841115610b4d5760405162461bcd60e51b815260206004820152601d60248201527f455243343632363a2072656465656d206d6f7265207468616e206d617800000060448201526064016107fe565b6000610b5885610710565b9050610aeb33858584896115a0565b6000610678826000610e0d565b6001600160a01b038116600090815260208190526040812054610678906000610c06565b600082815260066020526040902060010154610bb381611129565b61078d83836111b9565b6001600160a01b038116600090815260208190526040812054610678565b6001600160a01b03918216600090815260016020908152604080832093909416825291909152205490565b600080610c1260025490565b90508015610c3357610c2e610c256105a8565b85908386611660565b610aeb565b610aeb7f00000000000000000000000000000000000000000000000000000000000000006001600160a01b031663313ce5676040518163ffffffff1660e01b815260040160206040518083038186803b158015610c8f57600080fd5b505afa158015610ca3573d6000803e3d6000fd5b505050506040513d601f19601f82011682018060405250810190610cc79190611eda565b610cd290600a611fe1565b60125b610ce090600a611fe1565b86919086611660565b6001600160a01b038316610d4b5760405162461bcd60e51b8152602060048201526024808201527f45524332303a20617070726f76652066726f6d20746865207a65726f206164646044820152637265737360e01b60648201526084016107fe565b6001600160a01b038216610dac5760405162461bcd60e51b815260206004820152602260248201527f45524332303a20617070726f766520746f20746865207a65726f206164647265604482015261737360f01b60648201526084016107fe565b6001600160a01b0383811660008181526001602090815260408083209487168084529482529182902085905590518481527f8c5be1e5ebec7d5bd14f71427d1e84f3dd0314c0f7b2291e5b200ac8c7c3b925910160405180910390a3505050565b600080610e1960025490565b9050831580610e26575080155b610e3657610c2e81610ce06105a8565b610aeb610e456012600a611fe1565b7f00000000000000000000000000000000000000000000000000000000000000006001600160a01b031663313ce5676040518163ffffffff1660e01b815260040160206040518083038186803b158015610e9e57600080fd5b505afa158015610eb2573d6000803e3d6000fd5b505050506040513d601f19601f82011682018060405250810190610cd59190611eda565b6000610ee28484610bdb565b90506000198114610f4a5781811015610f3d5760405162461bcd60e51b815260206004820152601d60248201527f45524332303a20696e73756666696369656e7420616c6c6f77616e636500000060448201526064016107fe565b610f4a8484848403610ce9565b50505050565b6001600160a01b038316610fb45760405162461bcd60e51b815260206004820152602560248201527f45524332303a207472616e736665722066726f6d20746865207a65726f206164604482015264647265737360d81b60648201526084016107fe565b6001600160a01b0382166110165760405162461bcd60e51b815260206004820152602360248201527f45524332303a207472616e7366657220746f20746865207a65726f206164647260448201526265737360e81b60648201526084016107fe565b6110218383836116bd565b6001600160a01b038316600090815260208190526040902054818110156110995760405162461bcd60e51b815260206004820152602660248201527f45524332303a207472616e7366657220616d6f756e7420657863656564732062604482015265616c616e636560d01b60648201526084016107fe565b6001600160a01b038085166000908152602081905260408082208585039055918516815290812080548492906110d0908490611ec2565b92505081905550826001600160a01b0316846001600160a01b03167fddf252ad1be2c89b69c2b068fc378daa952ba7f163c4a11628f55a4df523b3ef8460405161111c91815260200190565b60405180910390a3610f4a565b61086981336116c5565b61113d8282610982565b6108115760008281526006602090815260408083206001600160a01b03851684529091529020805460ff191660011790556111753390565b6001600160a01b0316816001600160a01b0316837f2f8788117e7eff1d82e926ec794901d17c78024a50270940304540a733656f0d60405160405180910390a45050565b6111c38282610982565b156108115760008281526006602090815260408083206001600160a01b0385168085529252808320805460ff1916905551339285917ff6391f5c32d9c69d2a47ea670b442974b53935d1edc7fd64eb21e047a839171b9190a45050565b611228611729565b6005805460ff191690557f5db9ee0a495bf2e6ff9c91a7834c1ba4fdd244a5e8aa4e537bd38aeae4b073aa335b6040516001600160a01b03909116815260200160405180910390a1565b60008061127d6105a8565b11806106425750506002541590565b6001600160a01b0382166112e25760405162461bcd60e51b815260206004820152601f60248201527f45524332303a206d696e7420746f20746865207a65726f20616464726573730060448201526064016107fe565b6112ee600083836116bd565b80600260008282546113009190611ec2565b90915550506001600160a01b0382166000908152602081905260408120805483929061132d908490611ec2565b90915550506040518181526001600160a01b038316906000907fddf252ad1be2c89b69c2b068fc378daa952ba7f163c4a11628f55a4df523b3ef9060200160405180910390a35050565b6001600160a01b0382166113d75760405162461bcd60e51b815260206004820152602160248201527f45524332303a206275726e2066726f6d20746865207a65726f206164647265736044820152607360f81b60648201526084016107fe565b6113e3826000836116bd565b6001600160a01b038216600090815260208190526040902054818110156114575760405162461bcd60e51b815260206004820152602260248201527f45524332303a206275726e20616d6f756e7420657863656564732062616c616e604482015261636560f01b60648201526084016107fe565b6001600160a01b0383166000908152602081905260408120838303905560028054849290611486908490611ff0565b90915550506040518281526000906001600160a01b038516907fddf252ad1be2c89b69c2b068fc378daa952ba7f163c4a11628f55a4df523b3ef9060200160405180910390a3505050565b6114fd7f0000000000000000000000000000000000000000000000000000000000000000853085611774565b611507838261128c565b826001600160a01b0316846001600160a01b03167fdcbc1c05240f31ff3ad067ef1ee35ce4997762752e3a095284754544f4c709d78484604051611555929190918252602082015260400190565b60405180910390a350505050565b61156b6117df565b6005805460ff191660011790557f62e78cea01bee320cd4e420270b5ea74000d11b0c9f74754ebdbfc544b05a2586112553390565b826001600160a01b0316856001600160a01b0316146115c4576115c4838683610ed6565b6115ce8382611377565b6115f97f00000000000000000000000000000000000000000000000000000000000000008584611825565b826001600160a01b0316846001600160a01b0316866001600160a01b03167ffbde797d201c681b91056529119e0b02407c7bb96a4a2c75c01fc9667232c8db8585604051611651929190918252602082015260400190565b60405180910390a45050505050565b60008061166e868686611855565b9050600183600281111561168457611684612007565b1480156116a157506000848061169c5761169c61201d565b868809115b156116b4576116b1600182611ec2565b90505b95945050505050565b61078d6117df565b6116cf8282610982565b610811576116e7816001600160a01b03166014611905565b6116f2836020611905565b604051602001611703929190612033565b60408051601f198184030181529082905262461bcd60e51b82526107fe91600401611cdd565b60055460ff166117725760405162461bcd60e51b815260206004820152601460248201527314185d5cd8589b194e881b9bdd081c185d5cd95960621b60448201526064016107fe565b565b6040516001600160a01b0380851660248301528316604482015260648101829052610f4a9085906323b872dd60e01b906084015b60408051601f198184030181529190526020810180516001600160e01b03166001600160e01b031990931692909217909152611aa1565b60055460ff16156117725760405162461bcd60e51b815260206004820152601060248201526f14185d5cd8589b194e881c185d5cd95960821b60448201526064016107fe565b6040516001600160a01b03831660248201526044810182905261078d90849063a9059cbb60e01b906064016117a8565b600080806000198587098587029250828110838203039150508060001415611890578382816118865761188661201d565b0492505050610761565b80841161189c57600080fd5b60008486880960026001871981018816978890046003810283188082028403028082028403028082028403028082028403028082028403029081029092039091026000889003889004909101858311909403939093029303949094049190911702949350505050565b606060006119148360026120a8565b61191f906002611ec2565b67ffffffffffffffff811115611937576119376120c7565b6040519080825280601f01601f191660200182016040528015611961576020820181803683370190505b509050600360fc1b8160008151811061197c5761197c6120dd565b60200101906001600160f81b031916908160001a905350600f60fb1b816001815181106119ab576119ab6120dd565b60200101906001600160f81b031916908160001a90535060006119cf8460026120a8565b6119da906001611ec2565b90505b6001811115611a52576f181899199a1a9b1b9c1cb0b131b232b360811b85600f1660108110611a0e57611a0e6120dd565b1a60f81b828281518110611a2457611a246120dd565b60200101906001600160f81b031916908160001a90535060049490941c93611a4b816120f3565b90506119dd565b5083156107615760405162461bcd60e51b815260206004820181905260248201527f537472696e67733a20686578206c656e67746820696e73756666696369656e7460448201526064016107fe565b6000611af6826040518060400160405280602081526020017f5361666545524332303a206c6f772d6c6576656c2063616c6c206661696c6564815250856001600160a01b0316611b739092919063ffffffff16565b80519091501561078d5780806020019051810190611b14919061210a565b61078d5760405162461bcd60e51b815260206004820152602a60248201527f5361666545524332303a204552433230206f7065726174696f6e20646964206e6044820152691bdd081cdd58d8d9595960b21b60648201526084016107fe565b6060610aeb8484600085856001600160a01b0385163b611bd55760405162461bcd60e51b815260206004820152601d60248201527f416464726573733a2063616c6c20746f206e6f6e2d636f6e747261637400000060448201526064016107fe565b600080866001600160a01b03168587604051611bf1919061212c565b60006040518083038185875af1925050503d8060008114611c2e576040519150601f19603f3d011682016040523d82523d6000602084013e611c33565b606091505b5091509150611c43828286611c4e565b979650505050505050565b60608315611c5d575081610761565b825115611c6d5782518084602001fd5b8160405162461bcd60e51b81526004016107fe9190611cdd565b600060208284031215611c9957600080fd5b81356001600160e01b03198116811461076157600080fd5b60005b83811015611ccc578181015183820152602001611cb4565b83811115610f4a5750506000910152565b6020815260008251806020840152611cfc816040850160208701611cb1565b601f01601f19169190910160400192915050565b600060208284031215611d2257600080fd5b5035919050565b80356001600160a01b0381168114611d4057600080fd5b919050565b60008060408385031215611d5857600080fd5b611d6183611d29565b946020939093013593505050565b600080600060608486031215611d8457600080fd5b611d8d84611d29565b9250611d9b60208501611d29565b9150604084013590509250925092565b60008060408385031215611dbe57600080fd5b82359150611dce60208401611d29565b90509250929050565b600060208284031215611de957600080fd5b61076182611d29565b600080600060608486031215611e0757600080fd5b83359250611e1760208501611d29565b9150611e2560408501611d29565b90509250925092565b60008060408385031215611e4157600080fd5b611e4a83611d29565b9150611dce60208401611d29565b600060208284031215611e6a57600080fd5b5051919050565b600181811c90821680611e8557607f821691505b60208210811415611ea657634e487b7160e01b600052602260045260246000fd5b50919050565b634e487b7160e01b600052601160045260246000fd5b60008219821115611ed557611ed5611eac565b500190565b600060208284031215611eec57600080fd5b815160ff8116811461076157600080fd5b600181815b80851115611f38578160001904821115611f1e57611f1e611eac565b80851615611f2b57918102915b93841c9390800290611f02565b509250929050565b600082611f4f57506001610678565b81611f5c57506000610678565b8160018114611f725760028114611f7c57611f98565b6001915050610678565b60ff841115611f8d57611f8d611eac565b50506001821b610678565b5060208310610133831016604e8410600b8410161715611fbb575081810a610678565b611fc58383611efd565b8060001904821115611fd957611fd9611eac565b029392505050565b600061076160ff841683611f40565b60008282101561200257612002611eac565b500390565b634e487b7160e01b600052602160045260246000fd5b634e487b7160e01b600052601260045260246000fd5b7f416363657373436f6e74726f6c3a206163636f756e742000000000000000000081526000835161206b816017850160208801611cb1565b7001034b99036b4b9b9b4b733903937b6329607d1b601791840191820152835161209c816028840160208801611cb1565b01602801949350505050565b60008160001904831182151516156120c2576120c2611eac565b500290565b634e487b7160e01b600052604160045260246000fd5b634e487b7160e01b600052603260045260246000fd5b60008161210257612102611eac565b506000190190565b60006020828403121561211c57600080fd5b8151801515811461076157600080fd5b6000825161213e818460208701611cb1565b919091019291505056fea2646970667358221220ae7e75e855f260dc9e17b68fda2fa9a563b5fb010d3166dcb05bc113dc7b374164736f6c63430008090033",
    "sourcePath": "/home/boris/Documents/PROGRAMMING/ReserveProtocol/hacks/contracts/FlyEthereum.sol",
    "compiler": {
        "name": "solc",
        "version": "0.8.9+commit.e5eed63a"
    },
    "functionHashes": {
        "DEFAULT_ADMIN_ROLE()": "a217fddf",
        "MINTER_ROLE()": "d5391393",
        "PAUSER_ROLE()": "e63ab1e9",
        "allowance(address,address)": "dd62ed3e",
        "approve(address,uint256)": "095ea7b3",
        "asset()": "38d52e0f",
        "balanceOf(address)": "70a08231",
        "burn(uint256)": "42966c68",
        "burnFrom(address,uint256)": "79cc6790",
        "convertToAssets(uint256)": "07a2d13a",
        "convertToShares(uint256)": "c6e6f592",
        "decimals()": "313ce567",
        "decreaseAllowance(address,uint256)": "a457c2d7",
        "deposit(uint256,address)": "6e553f65",
        "getRoleAdmin(bytes32)": "248a9ca3",
        "grantRole(bytes32,address)": "2f2ff15d",
        "hasRole(bytes32,address)": "91d14854",
        "increaseAllowance(address,uint256)": "39509351",
        "maxDeposit(address)": "402d267d",
        "maxMint(address)": "c63d75b6",
        "maxRedeem(address)": "d905777e",
        "maxWithdraw(address)": "ce96cb77",
        "mint(address,uint256)": "40c10f19",
        "mint(uint256,address)": "94bf804d",
        "name()": "06fdde03",
        "pause()": "8456cb59",
        "paused()": "5c975abb",
        "previewDeposit(uint256)": "ef8b30f7",
        "previewMint(uint256)": "b3d7f6b9",
        "previewRedeem(uint256)": "4cdad506",
        "previewWithdraw(uint256)": "0a28a477",
        "redeem(uint256,address,address)": "ba087652",
        "renounceRole(bytes32,address)": "36568abe",
        "revokeRole(bytes32,address)": "d547741f",
        "supportsInterface(bytes4)": "01ffc9a7",
        "symbol()": "95d89b41",
        "totalAssets()": "01e1d114",
        "totalSupply()": "18160ddd",
        "transfer(address,uint256)": "a9059cbb",
        "transferFrom(address,address,uint256)": "23b872dd",
        "unpause()": "3f4ba83a",
        "withdraw(uint256,address,address)": "b460af94"
    },
    "gasEstimates": {
        "creation": {
            "codeDepositCost": "1714800",
            "executionCost": "infinite",
            "totalCost": "infinite"
        },
        "external": {
            "DEFAULT_ADMIN_ROLE()": "251",
            "MINTER_ROLE()": "228",
            "PAUSER_ROLE()": "316",
            "allowance(address,address)": "infinite",
            "approve(address,uint256)": "24736",
            "asset()": "infinite",
            "balanceOf(address)": "2575",
            "burn(uint256)": "53127",
            "burnFrom(address,uint256)": "79816",
            "convertToAssets(uint256)": "infinite",
            "convertToShares(uint256)": "infinite",
            "decimals()": "223",
            "decreaseAllowance(address,uint256)": "27039",
            "deposit(uint256,address)": "infinite",
            "getRoleAdmin(bytes32)": "2545",
            "grantRole(bytes32,address)": "infinite",
            "hasRole(bytes32,address)": "2777",
            "increaseAllowance(address,uint256)": "27090",
            "maxDeposit(address)": "infinite",
            "maxMint(address)": "436",
            "maxRedeem(address)": "2651",
            "maxWithdraw(address)": "infinite",
            "mint(address,uint256)": "infinite",
            "mint(uint256,address)": "infinite",
            "name()": "infinite",
            "pause()": "infinite",
            "paused()": "2437",
            "previewDeposit(uint256)": "infinite",
            "previewMint(uint256)": "infinite",
            "previewRedeem(uint256)": "infinite",
            "previewWithdraw(uint256)": "infinite",
            "redeem(uint256,address,address)": "infinite",
            "renounceRole(bytes32,address)": "29069",
            "revokeRole(bytes32,address)": "infinite",
            "supportsInterface(bytes4)": "506",
            "symbol()": "infinite",
            "totalAssets()": "infinite",
            "totalSupply()": "2349",
            "transfer(address,uint256)": "53482",
            "transferFrom(address,address,uint256)": "infinite",
            "unpause()": "infinite",
            "withdraw(uint256,address,address)": "infinite"
        },
        "internal": {
            "_beforeTokenTransfer(address,address,uint256)": "infinite"
        }
    }
}