{
  "_format": "hh-sol-artifact-1",
  "contractName": "FlyEthereum",
  "sourceName": "contracts/FlyEthereum.sol",
  "abi": [
    {
      "inputs": [
        {
          "internalType": "contract ERC4626",
          "name": "underlying_",
          "type": "address"
        }
      ],
      "stateMutability": "nonpayable",
      "type": "constructor"
    },
    {
      "anonymous": false,
      "inputs": [
        {
          "indexed": true,
          "internalType": "address",
          "name": "owner",
          "type": "address"
        },
        {
          "indexed": true,
          "internalType": "address",
          "name": "spender",
          "type": "address"
        },
        {
          "indexed": false,
          "internalType": "uint256",
          "name": "value",
          "type": "uint256"
        }
      ],
      "name": "Approval",
      "type": "event"
    },
    {
      "anonymous": false,
      "inputs": [
        {
          "indexed": true,
          "internalType": "address",
          "name": "caller",
          "type": "address"
        },
        {
          "indexed": true,
          "internalType": "address",
          "name": "owner",
          "type": "address"
        },
        {
          "indexed": false,
          "internalType": "uint256",
          "name": "assets",
          "type": "uint256"
        },
        {
          "indexed": false,
          "internalType": "uint256",
          "name": "shares",
          "type": "uint256"
        }
      ],
      "name": "Deposit",
      "type": "event"
    },
    {
      "anonymous": false,
      "inputs": [
        {
          "indexed": false,
          "internalType": "address",
          "name": "account",
          "type": "address"
        }
      ],
      "name": "Paused",
      "type": "event"
    },
    {
      "anonymous": false,
      "inputs": [
        {
          "indexed": true,
          "internalType": "bytes32",
          "name": "role",
          "type": "bytes32"
        },
        {
          "indexed": true,
          "internalType": "bytes32",
          "name": "previousAdminRole",
          "type": "bytes32"
        },
        {
          "indexed": true,
          "internalType": "bytes32",
          "name": "newAdminRole",
          "type": "bytes32"
        }
      ],
      "name": "RoleAdminChanged",
      "type": "event"
    },
    {
      "anonymous": false,
      "inputs": [
        {
          "indexed": true,
          "internalType": "bytes32",
          "name": "role",
          "type": "bytes32"
        },
        {
          "indexed": true,
          "internalType": "address",
          "name": "account",
          "type": "address"
        },
        {
          "indexed": true,
          "internalType": "address",
          "name": "sender",
          "type": "address"
        }
      ],
      "name": "RoleGranted",
      "type": "event"
    },
    {
      "anonymous": false,
      "inputs": [
        {
          "indexed": true,
          "internalType": "bytes32",
          "name": "role",
          "type": "bytes32"
        },
        {
          "indexed": true,
          "internalType": "address",
          "name": "account",
          "type": "address"
        },
        {
          "indexed": true,
          "internalType": "address",
          "name": "sender",
          "type": "address"
        }
      ],
      "name": "RoleRevoked",
      "type": "event"
    },
    {
      "anonymous": false,
      "inputs": [
        {
          "indexed": true,
          "internalType": "address",
          "name": "from",
          "type": "address"
        },
        {
          "indexed": true,
          "internalType": "address",
          "name": "to",
          "type": "address"
        },
        {
          "indexed": false,
          "internalType": "uint256",
          "name": "value",
          "type": "uint256"
        }
      ],
      "name": "Transfer",
      "type": "event"
    },
    {
      "anonymous": false,
      "inputs": [
        {
          "indexed": false,
          "internalType": "address",
          "name": "account",
          "type": "address"
        }
      ],
      "name": "Unpaused",
      "type": "event"
    },
    {
      "anonymous": false,
      "inputs": [
        {
          "indexed": true,
          "internalType": "address",
          "name": "caller",
          "type": "address"
        },
        {
          "indexed": true,
          "internalType": "address",
          "name": "receiver",
          "type": "address"
        },
        {
          "indexed": true,
          "internalType": "address",
          "name": "owner",
          "type": "address"
        },
        {
          "indexed": false,
          "internalType": "uint256",
          "name": "assets",
          "type": "uint256"
        },
        {
          "indexed": false,
          "internalType": "uint256",
          "name": "shares",
          "type": "uint256"
        }
      ],
      "name": "Withdraw",
      "type": "event"
    },
    {
      "inputs": [],
      "name": "ALCHEMIST_CONTRACT",
      "outputs": [
        {
          "internalType": "address",
          "name": "",
          "type": "address"
        }
      ],
      "stateMutability": "view",
      "type": "function"
    },
    {
      "inputs": [],
      "name": "ALCHEMIST_DEBT_TOKEN_CONTRACT",
      "outputs": [
        {
          "internalType": "address",
          "name": "",
          "type": "address"
        }
      ],
      "stateMutability": "view",
      "type": "function"
    },
    {
      "inputs": [],
      "name": "ALCHEMIST_MIN_DY_YIELD_TOKEN",
      "outputs": [
        {
          "internalType": "uint256",
          "name": "",
          "type": "uint256"
        }
      ],
      "stateMutability": "view",
      "type": "function"
    },
    {
      "inputs": [],
      "name": "ALCHEMIST_YIELD_TOKEN_CONTRACT",
      "outputs": [
        {
          "internalType": "address",
          "name": "",
          "type": "address"
        }
      ],
      "stateMutability": "view",
      "type": "function"
    },
    {
      "inputs": [],
      "name": "CURVE_ALETH_POOL_CONTRACT",
      "outputs": [
        {
          "internalType": "address",
          "name": "",
          "type": "address"
        }
      ],
      "stateMutability": "view",
      "type": "function"
    },
    {
      "inputs": [],
      "name": "DEFAULT_ADMIN_ROLE",
      "outputs": [
        {
          "internalType": "bytes32",
          "name": "",
          "type": "bytes32"
        }
      ],
      "stateMutability": "view",
      "type": "function"
    },
    {
      "inputs": [],
      "name": "DOMAIN_SEPARATOR",
      "outputs": [
        {
          "internalType": "bytes32",
          "name": "",
          "type": "bytes32"
        }
      ],
      "stateMutability": "view",
      "type": "function"
    },
    {
      "inputs": [],
      "name": "MANAGER_ROLE",
      "outputs": [
        {
          "internalType": "bytes32",
          "name": "",
          "type": "bytes32"
        }
      ],
      "stateMutability": "view",
      "type": "function"
    },
    {
      "inputs": [],
      "name": "MINTER_ROLE",
      "outputs": [
        {
          "internalType": "bytes32",
          "name": "",
          "type": "bytes32"
        }
      ],
      "stateMutability": "view",
      "type": "function"
    },
    {
      "inputs": [],
      "name": "PAUSER_ROLE",
      "outputs": [
        {
          "internalType": "bytes32",
          "name": "",
          "type": "bytes32"
        }
      ],
      "stateMutability": "view",
      "type": "function"
    },
    {
      "inputs": [
        {
          "internalType": "address",
          "name": "owner",
          "type": "address"
        },
        {
          "internalType": "address",
          "name": "spender",
          "type": "address"
        }
      ],
      "name": "allowance",
      "outputs": [
        {
          "internalType": "uint256",
          "name": "",
          "type": "uint256"
        }
      ],
      "stateMutability": "view",
      "type": "function"
    },
    {
      "inputs": [
        {
          "internalType": "address",
          "name": "spender",
          "type": "address"
        },
        {
          "internalType": "uint256",
          "name": "amount",
          "type": "uint256"
        }
      ],
      "name": "approve",
      "outputs": [
        {
          "internalType": "bool",
          "name": "",
          "type": "bool"
        }
      ],
      "stateMutability": "nonpayable",
      "type": "function"
    },
    {
      "inputs": [],
      "name": "asset",
      "outputs": [
        {
          "internalType": "address",
          "name": "",
          "type": "address"
        }
      ],
      "stateMutability": "view",
      "type": "function"
    },
    {
      "inputs": [
        {
          "internalType": "address",
          "name": "account",
          "type": "address"
        }
      ],
      "name": "balanceOf",
      "outputs": [
        {
          "internalType": "uint256",
          "name": "",
          "type": "uint256"
        }
      ],
      "stateMutability": "view",
      "type": "function"
    },
    {
      "inputs": [
        {
          "internalType": "uint256",
          "name": "amount",
          "type": "uint256"
        }
      ],
      "name": "burn",
      "outputs": [],
      "stateMutability": "nonpayable",
      "type": "function"
    },
    {
      "inputs": [
        {
          "internalType": "address",
          "name": "account",
          "type": "address"
        },
        {
          "internalType": "uint256",
          "name": "amount",
          "type": "uint256"
        }
      ],
      "name": "burnFrom",
      "outputs": [],
      "stateMutability": "nonpayable",
      "type": "function"
    },
    {
      "inputs": [
        {
          "internalType": "uint256",
          "name": "shares",
          "type": "uint256"
        }
      ],
      "name": "convertToAssets",
      "outputs": [
        {
          "internalType": "uint256",
          "name": "assets",
          "type": "uint256"
        }
      ],
      "stateMutability": "view",
      "type": "function"
    },
    {
      "inputs": [
        {
          "internalType": "uint256",
          "name": "assets",
          "type": "uint256"
        }
      ],
      "name": "convertToShares",
      "outputs": [
        {
          "internalType": "uint256",
          "name": "shares",
          "type": "uint256"
        }
      ],
      "stateMutability": "view",
      "type": "function"
    },
    {
      "inputs": [],
      "name": "decimals",
      "outputs": [
        {
          "internalType": "uint8",
          "name": "",
          "type": "uint8"
        }
      ],
      "stateMutability": "pure",
      "type": "function"
    },
    {
      "inputs": [
        {
          "internalType": "address",
          "name": "spender",
          "type": "address"
        },
        {
          "internalType": "uint256",
          "name": "subtractedValue",
          "type": "uint256"
        }
      ],
      "name": "decreaseAllowance",
      "outputs": [
        {
          "internalType": "bool",
          "name": "",
          "type": "bool"
        }
      ],
      "stateMutability": "nonpayable",
      "type": "function"
    },
    {
      "inputs": [
        {
          "internalType": "uint256",
          "name": "assets",
          "type": "uint256"
        },
        {
          "internalType": "address",
          "name": "receiver",
          "type": "address"
        }
      ],
      "name": "deposit",
      "outputs": [
        {
          "internalType": "uint256",
          "name": "",
          "type": "uint256"
        }
      ],
      "stateMutability": "nonpayable",
      "type": "function"
    },
    {
      "inputs": [],
      "name": "foldingThreshold",
      "outputs": [
        {
          "internalType": "uint256",
          "name": "",
          "type": "uint256"
        }
      ],
      "stateMutability": "view",
      "type": "function"
    },
    {
      "inputs": [
        {
          "internalType": "address",
          "name": "owner",
          "type": "address"
        }
      ],
      "name": "getAccountPosition",
      "outputs": [
        {
          "internalType": "uint256",
          "name": "debt",
          "type": "uint256"
        },
        {
          "internalType": "uint256",
          "name": "credit",
          "type": "uint256"
        },
        {
          "internalType": "uint256",
          "name": "ledgerIndex",
          "type": "uint256"
        }
      ],
      "stateMutability": "view",
      "type": "function"
    },
    {
      "inputs": [
        {
          "internalType": "uint256",
          "name": "index",
          "type": "uint256"
        }
      ],
      "name": "getLedgerEntry",
      "outputs": [
        {
          "internalType": "uint256",
          "name": "debt",
          "type": "uint256"
        },
        {
          "internalType": "uint256",
          "name": "credit",
          "type": "uint256"
        }
      ],
      "stateMutability": "view",
      "type": "function"
    },
    {
      "inputs": [
        {
          "internalType": "bytes32",
          "name": "role",
          "type": "bytes32"
        }
      ],
      "name": "getRoleAdmin",
      "outputs": [
        {
          "internalType": "bytes32",
          "name": "",
          "type": "bytes32"
        }
      ],
      "stateMutability": "view",
      "type": "function"
    },
    {
      "inputs": [
        {
          "internalType": "bytes32",
          "name": "role",
          "type": "bytes32"
        },
        {
          "internalType": "address",
          "name": "account",
          "type": "address"
        }
      ],
      "name": "grantRole",
      "outputs": [],
      "stateMutability": "nonpayable",
      "type": "function"
    },
    {
      "inputs": [
        {
          "internalType": "bytes32",
          "name": "role",
          "type": "bytes32"
        },
        {
          "internalType": "address",
          "name": "account",
          "type": "address"
        }
      ],
      "name": "hasRole",
      "outputs": [
        {
          "internalType": "bool",
          "name": "",
          "type": "bool"
        }
      ],
      "stateMutability": "view",
      "type": "function"
    },
    {
      "inputs": [
        {
          "internalType": "address",
          "name": "spender",
          "type": "address"
        },
        {
          "internalType": "uint256",
          "name": "addedValue",
          "type": "uint256"
        }
      ],
      "name": "increaseAllowance",
      "outputs": [
        {
          "internalType": "bool",
          "name": "",
          "type": "bool"
        }
      ],
      "stateMutability": "nonpayable",
      "type": "function"
    },
    {
      "inputs": [
        {
          "internalType": "address",
          "name": "",
          "type": "address"
        }
      ],
      "name": "maxDeposit",
      "outputs": [
        {
          "internalType": "uint256",
          "name": "",
          "type": "uint256"
        }
      ],
      "stateMutability": "pure",
      "type": "function"
    },
    {
      "inputs": [
        {
          "internalType": "address",
          "name": "",
          "type": "address"
        }
      ],
      "name": "maxMint",
      "outputs": [
        {
          "internalType": "uint256",
          "name": "",
          "type": "uint256"
        }
      ],
      "stateMutability": "view",
      "type": "function"
    },
    {
      "inputs": [
        {
          "internalType": "address",
          "name": "owner",
          "type": "address"
        }
      ],
      "name": "maxRedeem",
      "outputs": [
        {
          "internalType": "uint256",
          "name": "",
          "type": "uint256"
        }
      ],
      "stateMutability": "view",
      "type": "function"
    },
    {
      "inputs": [
        {
          "internalType": "address",
          "name": "owner",
          "type": "address"
        }
      ],
      "name": "maxWithdraw",
      "outputs": [
        {
          "internalType": "uint256",
          "name": "",
          "type": "uint256"
        }
      ],
      "stateMutability": "view",
      "type": "function"
    },
    {
      "inputs": [
        {
          "internalType": "address",
          "name": "to",
          "type": "address"
        },
        {
          "internalType": "uint256",
          "name": "amount",
          "type": "uint256"
        }
      ],
      "name": "mint",
      "outputs": [],
      "stateMutability": "nonpayable",
      "type": "function"
    },
    {
      "inputs": [
        {
          "internalType": "uint256",
          "name": "shares",
          "type": "uint256"
        },
        {
          "internalType": "address",
          "name": "receiver",
          "type": "address"
        }
      ],
      "name": "mint",
      "outputs": [
        {
          "internalType": "uint256",
          "name": "",
          "type": "uint256"
        }
      ],
      "stateMutability": "nonpayable",
      "type": "function"
    },
    {
      "inputs": [],
      "name": "name",
      "outputs": [
        {
          "internalType": "string",
          "name": "",
          "type": "string"
        }
      ],
      "stateMutability": "view",
      "type": "function"
    },
    {
      "inputs": [
        {
          "internalType": "address",
          "name": "owner",
          "type": "address"
        }
      ],
      "name": "nonces",
      "outputs": [
        {
          "internalType": "uint256",
          "name": "",
          "type": "uint256"
        }
      ],
      "stateMutability": "view",
      "type": "function"
    },
    {
      "inputs": [],
      "name": "pause",
      "outputs": [],
      "stateMutability": "nonpayable",
      "type": "function"
    },
    {
      "inputs": [],
      "name": "paused",
      "outputs": [
        {
          "internalType": "bool",
          "name": "",
          "type": "bool"
        }
      ],
      "stateMutability": "view",
      "type": "function"
    },
    {
      "inputs": [
        {
          "internalType": "address",
          "name": "owner",
          "type": "address"
        },
        {
          "internalType": "address",
          "name": "spender",
          "type": "address"
        },
        {
          "internalType": "uint256",
          "name": "value",
          "type": "uint256"
        },
        {
          "internalType": "uint256",
          "name": "deadline",
          "type": "uint256"
        },
        {
          "internalType": "uint8",
          "name": "v",
          "type": "uint8"
        },
        {
          "internalType": "bytes32",
          "name": "r",
          "type": "bytes32"
        },
        {
          "internalType": "bytes32",
          "name": "s",
          "type": "bytes32"
        }
      ],
      "name": "permit",
      "outputs": [],
      "stateMutability": "nonpayable",
      "type": "function"
    },
    {
      "inputs": [
        {
          "internalType": "uint256",
          "name": "assets",
          "type": "uint256"
        }
      ],
      "name": "previewDeposit",
      "outputs": [
        {
          "internalType": "uint256",
          "name": "",
          "type": "uint256"
        }
      ],
      "stateMutability": "view",
      "type": "function"
    },
    {
      "inputs": [
        {
          "internalType": "uint256",
          "name": "shares",
          "type": "uint256"
        }
      ],
      "name": "previewMint",
      "outputs": [
        {
          "internalType": "uint256",
          "name": "",
          "type": "uint256"
        }
      ],
      "stateMutability": "view",
      "type": "function"
    },
    {
      "inputs": [
        {
          "internalType": "uint256",
          "name": "shares",
          "type": "uint256"
        }
      ],
      "name": "previewRedeem",
      "outputs": [
        {
          "internalType": "uint256",
          "name": "",
          "type": "uint256"
        }
      ],
      "stateMutability": "view",
      "type": "function"
    },
    {
      "inputs": [
        {
          "internalType": "uint256",
          "name": "assets",
          "type": "uint256"
        }
      ],
      "name": "previewWithdraw",
      "outputs": [
        {
          "internalType": "uint256",
          "name": "",
          "type": "uint256"
        }
      ],
      "stateMutability": "view",
      "type": "function"
    },
    {
      "inputs": [
        {
          "internalType": "uint256",
          "name": "shares",
          "type": "uint256"
        },
        {
          "internalType": "address",
          "name": "receiver",
          "type": "address"
        },
        {
          "internalType": "address",
          "name": "owner",
          "type": "address"
        }
      ],
      "name": "redeem",
      "outputs": [
        {
          "internalType": "uint256",
          "name": "",
          "type": "uint256"
        }
      ],
      "stateMutability": "nonpayable",
      "type": "function"
    },
    {
      "inputs": [
        {
          "internalType": "bytes32",
          "name": "role",
          "type": "bytes32"
        },
        {
          "internalType": "address",
          "name": "account",
          "type": "address"
        }
      ],
      "name": "renounceRole",
      "outputs": [],
      "stateMutability": "nonpayable",
      "type": "function"
    },
    {
      "inputs": [
        {
          "internalType": "bytes32",
          "name": "role",
          "type": "bytes32"
        },
        {
          "internalType": "address",
          "name": "account",
          "type": "address"
        }
      ],
      "name": "revokeRole",
      "outputs": [],
      "stateMutability": "nonpayable",
      "type": "function"
    },
    {
      "inputs": [
        {
          "internalType": "uint256",
          "name": "foldingThreshold_",
          "type": "uint256"
        }
      ],
      "name": "setFoldingThreshold",
      "outputs": [],
      "stateMutability": "nonpayable",
      "type": "function"
    },
    {
      "inputs": [
        {
          "internalType": "bytes4",
          "name": "interfaceId",
          "type": "bytes4"
        }
      ],
      "name": "supportsInterface",
      "outputs": [
        {
          "internalType": "bool",
          "name": "",
          "type": "bool"
        }
      ],
      "stateMutability": "view",
      "type": "function"
    },
    {
      "inputs": [],
      "name": "symbol",
      "outputs": [
        {
          "internalType": "string",
          "name": "",
          "type": "string"
        }
      ],
      "stateMutability": "view",
      "type": "function"
    },
    {
      "inputs": [],
      "name": "totalAssets",
      "outputs": [
        {
          "internalType": "uint256",
          "name": "",
          "type": "uint256"
        }
      ],
      "stateMutability": "view",
      "type": "function"
    },
    {
      "inputs": [],
      "name": "totalDebt",
      "outputs": [
        {
          "internalType": "uint256",
          "name": "",
          "type": "uint256"
        }
      ],
      "stateMutability": "view",
      "type": "function"
    },
    {
      "inputs": [],
      "name": "totalSupply",
      "outputs": [
        {
          "internalType": "uint256",
          "name": "",
          "type": "uint256"
        }
      ],
      "stateMutability": "view",
      "type": "function"
    },
    {
      "inputs": [
        {
          "internalType": "address",
          "name": "to",
          "type": "address"
        },
        {
          "internalType": "uint256",
          "name": "amount",
          "type": "uint256"
        }
      ],
      "name": "transfer",
      "outputs": [
        {
          "internalType": "bool",
          "name": "",
          "type": "bool"
        }
      ],
      "stateMutability": "nonpayable",
      "type": "function"
    },
    {
      "inputs": [
        {
          "internalType": "address",
          "name": "from",
          "type": "address"
        },
        {
          "internalType": "address",
          "name": "to",
          "type": "address"
        },
        {
          "internalType": "uint256",
          "name": "amount",
          "type": "uint256"
        }
      ],
      "name": "transferFrom",
      "outputs": [
        {
          "internalType": "bool",
          "name": "",
          "type": "bool"
        }
      ],
      "stateMutability": "nonpayable",
      "type": "function"
    },
    {
      "inputs": [],
      "name": "unpause",
      "outputs": [],
      "stateMutability": "nonpayable",
      "type": "function"
    },
    {
      "inputs": [
        {
          "internalType": "uint256",
          "name": "assets",
          "type": "uint256"
        },
        {
          "internalType": "address",
          "name": "receiver",
          "type": "address"
        },
        {
          "internalType": "address",
          "name": "owner",
          "type": "address"
        }
      ],
      "name": "withdraw",
      "outputs": [
        {
          "internalType": "uint256",
          "name": "",
          "type": "uint256"
        }
      ],
      "stateMutability": "nonpayable",
      "type": "function"
    },
    {
      "stateMutability": "payable",
      "type": "receive"
    }
  ],
  "bytecode": "0x6101606040523480156200001257600080fd5b506040516200611a3803806200611a833981810160405281019062000038919062000634565b6040518060400160405280600b81526020017f466c79457468657265756d000000000000000000000000000000000000000000815250806040518060400160405280600181526020017f3100000000000000000000000000000000000000000000000000000000000000815250836040518060400160405280600b81526020017f466c79457468657265756d0000000000000000000000000000000000000000008152506040518060400160405280600681526020017f666c79455448000000000000000000000000000000000000000000000000000081525081600390805190602001906200012a92919062000506565b5080600490805190602001906200014392919062000506565b5050508073ffffffffffffffffffffffffffffffffffffffff1660808173ffffffffffffffffffffffffffffffffffffffff1681525050506000600560006101000a81548160ff02191690831515021790555060008280519060200120905060008280519060200120905060007f8b73c3c69bb8fe3d512ecc4cf759cc79239f7b179b0ffacaa9a75d522b39400f90508261010081815250508161012081815250504660c08181525050620002008184846200035b60201b60201c565b60a081815250503073ffffffffffffffffffffffffffffffffffffffff1660e08173ffffffffffffffffffffffffffffffffffffffff16815250508061014081815250505050505050506200025f6000801b336200039760201b60201c565b620002917f65d7a28e3265b37a6474929f336521b332c1681b933f6cb9f3376673440d862a336200039760201b60201c565b620002c37f9f2df0fed2c77648de5860a4cc508cd0818c85b8b8a1ab4ceeef8d981c8956a6336200039760201b60201c565b620002f57f241ecf16d79d0f8dbfb92cbc07fe17840425976cf0667f022fe9877caa831b08336200039760201b60201c565b671bc16d674ec80000600a81905550620003146200048960201b60201c565b600960006101000a81548173ffffffffffffffffffffffffffffffffffffffff021916908373ffffffffffffffffffffffffffffffffffffffff160217905550506200076f565b6000838383463060405160200162000378959493929190620006ad565b6040516020818303038152906040528051906020012090509392505050565b620003a982826200049360201b60201c565b620004855760016006600084815260200190815260200160002060000160008373ffffffffffffffffffffffffffffffffffffffff1673ffffffffffffffffffffffffffffffffffffffff16815260200190815260200160002060006101000a81548160ff0219169083151502179055506200042a620004fe60201b60201c565b73ffffffffffffffffffffffffffffffffffffffff168173ffffffffffffffffffffffffffffffffffffffff16837f2f8788117e7eff1d82e926ec794901d17c78024a50270940304540a733656f0d60405160405180910390a45b5050565b6000608051905090565b60006006600084815260200190815260200160002060000160008373ffffffffffffffffffffffffffffffffffffffff1673ffffffffffffffffffffffffffffffffffffffff16815260200190815260200160002060009054906101000a900460ff16905092915050565b600033905090565b828054620005149062000739565b90600052602060002090601f01602090048101928262000538576000855562000584565b82601f106200055357805160ff191683800117855562000584565b8280016001018555821562000584579182015b828111156200058357825182559160200191906001019062000566565b5b50905062000593919062000597565b5090565b5b80821115620005b257600081600090555060010162000598565b5090565b600080fd5b600073ffffffffffffffffffffffffffffffffffffffff82169050919050565b6000620005e882620005bb565b9050919050565b6000620005fc82620005db565b9050919050565b6200060e81620005ef565b81146200061a57600080fd5b50565b6000815190506200062e8162000603565b92915050565b6000602082840312156200064d576200064c620005b6565b5b60006200065d848285016200061d565b91505092915050565b6000819050919050565b6200067b8162000666565b82525050565b6000819050919050565b620006968162000681565b82525050565b620006a781620005db565b82525050565b600060a082019050620006c4600083018862000670565b620006d3602083018762000670565b620006e2604083018662000670565b620006f160608301856200068b565b6200070060808301846200069c565b9695505050505050565b7f4e487b7100000000000000000000000000000000000000000000000000000000600052602260045260246000fd5b600060028204905060018216806200075257607f821691505b602082108114156200076957620007686200070a565b5b50919050565b60805160a05160c05160e051610100516101205161014051615934620007e660003960006125fb0152600061263d0152600061261c01526000612551015260006125a7015260006125d0015260008181610e9c015281816112ab01528181611dd701528181612bd00152612cbc01526159346000f3fe60806040526004361061036e5760003560e01c806379cc6790116101c6578063c6e6f592116100f7578063d905777e11610095578063e63ab1e91161006f578063e63ab1e914610dd5578063ec87621c14610e00578063ef8b30f714610e2b578063fc7b9c1814610e6857610375565b8063d905777e14610d30578063dd62ed3e14610d6d578063e312370614610daa57610375565b8063d505accf116100d1578063d505accf14610c8a578063d539139314610cb3578063d547741f14610cde578063d5e6bef014610d0757610375565b8063c6e6f59214610be5578063ce96cb7714610c22578063d1f8cc9014610c5f57610375565b8063a457c2d711610164578063b460af941161013e578063b460af9414610b03578063ba08765214610b40578063bf0e745c14610b7d578063c63d75b614610ba857610375565b8063a457c2d714610a4c578063a9059cbb14610a89578063b3d7f6b914610ac657610375565b806391d14854116101a057806391d148541461097c57806394bf804d146109b957806395d89b41146109f6578063a217fddf14610a2157610375565b806379cc6790146108ff5780637ecebe00146109285780638456cb591461096557610375565b80633644e515116102a057806342966c681161023e57806359efdb131161021857806359efdb131461082f5780635c975abb1461085a5780636e553f651461088557806370a08231146108c257610375565b806342966c681461078b57806343ec5665146107b45780634cdad506146107f257610375565b8063395093511161027a57806339509351146106d15780633f4ba83a1461070e578063402d267d1461072557806340c10f191461076257610375565b80633644e5151461065257806336568abe1461067d57806338d52e0f146106a657610375565b80630a57d5e01161030d57806323b872dd116102e757806323b872dd14610584578063248a9ca3146105c15780632f2ff15d146105fe578063313ce5671461062757610375565b80630a57d5e0146104ef57806318160ddd1461052e57806320a604821461055957610375565b806306fdde031161034957806306fdde031461040d57806307a2d13a14610438578063095ea7b3146104755780630a28a477146104b257610375565b806244fbf21461037a57806301e1d114146103a557806301ffc9a7146103d057610375565b3661037557005b600080fd5b34801561038657600080fd5b5061038f610e93565b60405161039c91906139f4565b60405180910390f35b3480156103b157600080fd5b506103ba610e98565b6040516103c791906139f4565b60405180910390f35b3480156103dc57600080fd5b506103f760048036038101906103f29190613a7b565b610f48565b6040516104049190613ac3565b60405180910390f35b34801561041957600080fd5b50610422610fc2565b60405161042f9190613b77565b60405180910390f35b34801561044457600080fd5b5061045f600480360381019061045a9190613bc5565b611054565b60405161046c91906139f4565b60405180910390f35b34801561048157600080fd5b5061049c60048036038101906104979190613c50565b611068565b6040516104a99190613ac3565b60405180910390f35b3480156104be57600080fd5b506104d960048036038101906104d49190613bc5565b61108b565b6040516104e691906139f4565b60405180910390f35b3480156104fb57600080fd5b5061051660048036038101906105119190613c90565b61109f565b60405161052593929190613cbd565b60405180910390f35b34801561053a57600080fd5b5061054361117a565b60405161055091906139f4565b60405180910390f35b34801561056557600080fd5b5061056e611184565b60405161057b9190613d03565b60405180910390f35b34801561059057600080fd5b506105ab60048036038101906105a69190613d1e565b61119c565b6040516105b89190613ac3565b60405180910390f35b3480156105cd57600080fd5b506105e860048036038101906105e39190613da7565b6111cb565b6040516105f59190613de3565b60405180910390f35b34801561060a57600080fd5b5061062560048036038101906106209190613dfe565b6111eb565b005b34801561063357600080fd5b5061063c61120c565b6040516106499190613e5a565b60405180910390f35b34801561065e57600080fd5b50610667611215565b6040516106749190613de3565b60405180910390f35b34801561068957600080fd5b506106a4600480360381019061069f9190613dfe565b611224565b005b3480156106b257600080fd5b506106bb6112a7565b6040516106c89190613d03565b60405180910390f35b3480156106dd57600080fd5b506106f860048036038101906106f39190613c50565b6112cf565b6040516107059190613ac3565b60405180910390f35b34801561071a57600080fd5b50610723611306565b005b34801561073157600080fd5b5061074c60048036038101906107479190613c90565b61133b565b60405161075991906139f4565b60405180910390f35b34801561076e57600080fd5b5061078960048036038101906107849190613c50565b61134e565b005b34801561079757600080fd5b506107b260048036038101906107ad9190613bc5565b611387565b005b3480156107c057600080fd5b506107db60048036038101906107d69190613bc5565b61139b565b6040516107e9929190613e75565b60405180910390f35b3480156107fe57600080fd5b5061081960048036038101906108149190613bc5565b6113d8565b60405161082691906139f4565b60405180910390f35b34801561083b57600080fd5b506108446113ec565b6040516108519190613d03565b60405180910390f35b34801561086657600080fd5b5061086f611404565b60405161087c9190613ac3565b60405180910390f35b34801561089157600080fd5b506108ac60048036038101906108a79190613e9e565b61141b565b6040516108b991906139f4565b60405180910390f35b3480156108ce57600080fd5b506108e960048036038101906108e49190613c90565b6115e1565b6040516108f691906139f4565b60405180910390f35b34801561090b57600080fd5b5061092660048036038101906109219190613c50565b611629565b005b34801561093457600080fd5b5061094f600480360381019061094a9190613c90565b611649565b60405161095c91906139f4565b60405180910390f35b34801561097157600080fd5b5061097a611699565b005b34801561098857600080fd5b506109a3600480360381019061099e9190613dfe565b6116ce565b6040516109b09190613ac3565b60405180910390f35b3480156109c557600080fd5b506109e060048036038101906109db9190613e9e565b611739565b6040516109ed91906139f4565b60405180910390f35b348015610a0257600080fd5b50610a0b6117b0565b604051610a189190613b77565b60405180910390f35b348015610a2d57600080fd5b50610a36611842565b604051610a439190613de3565b60405180910390f35b348015610a5857600080fd5b50610a736004803603810190610a6e9190613c50565b611849565b604051610a809190613ac3565b60405180910390f35b348015610a9557600080fd5b50610ab06004803603810190610aab9190613c50565b6118c0565b604051610abd9190613ac3565b60405180910390f35b348015610ad257600080fd5b50610aed6004803603810190610ae89190613bc5565b6118e3565b604051610afa91906139f4565b60405180910390f35b348015610b0f57600080fd5b50610b2a6004803603810190610b259190613ede565b6118f7565b604051610b3791906139f4565b60405180910390f35b348015610b4c57600080fd5b50610b676004803603810190610b629190613ede565b611970565b604051610b7491906139f4565b60405180910390f35b348015610b8957600080fd5b50610b926119e9565b604051610b9f9190613d03565b60405180910390f35b348015610bb457600080fd5b50610bcf6004803603810190610bca9190613c90565b611a01565b604051610bdc91906139f4565b60405180910390f35b348015610bf157600080fd5b50610c0c6004803603810190610c079190613bc5565b611a2b565b604051610c1991906139f4565b60405180910390f35b348015610c2e57600080fd5b50610c496004803603810190610c449190613c90565b611a3f565b604051610c5691906139f4565b60405180910390f35b348015610c6b57600080fd5b50610c74611a5b565b604051610c819190613d03565b60405180910390f35b348015610c9657600080fd5b50610cb16004803603810190610cac9190613f5d565b611a73565b005b348015610cbf57600080fd5b50610cc8611bb5565b604051610cd59190613de3565b60405180910390f35b348015610cea57600080fd5b50610d056004803603810190610d009190613dfe565b611bd9565b005b348015610d1357600080fd5b50610d2e6004803603810190610d299190613bc5565b611bfa565b005b348015610d3c57600080fd5b50610d576004803603810190610d529190613c90565b611c2f565b604051610d6491906139f4565b60405180910390f35b348015610d7957600080fd5b50610d946004803603810190610d8f9190613fff565b611c41565b604051610da191906139f4565b60405180910390f35b348015610db657600080fd5b50610dbf611cc8565b604051610dcc91906139f4565b60405180910390f35b348015610de157600080fd5b50610dea611cce565b604051610df79190613de3565b60405180910390f35b348015610e0c57600080fd5b50610e15611cf2565b604051610e229190613de3565b60405180910390f35b348015610e3757600080fd5b50610e526004803603810190610e4d9190613bc5565b611d16565b604051610e5f91906139f4565b60405180910390f35b348015610e7457600080fd5b50610e7d611d2a565b604051610e8a91906139f4565b60405180910390f35b606281565b60007f000000000000000000000000000000000000000000000000000000000000000073ffffffffffffffffffffffffffffffffffffffff166370a08231306040518263ffffffff1660e01b8152600401610ef39190613d03565b60206040518083038186803b158015610f0b57600080fd5b505afa158015610f1f573d6000803e3d6000fd5b505050506040513d601f19601f82011682018060405250810190610f439190614054565b905090565b60007f7965db0b000000000000000000000000000000000000000000000000000000007bffffffffffffffffffffffffffffffffffffffffffffffffffffffff1916827bffffffffffffffffffffffffffffffffffffffffffffffffffffffff19161480610fbb5750610fba82611d30565b5b9050919050565b606060038054610fd1906140b0565b80601f0160208091040260200160405190810160405280929190818152602001828054610ffd906140b0565b801561104a5780601f1061101f5761010080835404028352916020019161104a565b820191906000526020600020905b81548152906001019060200180831161102d57829003601f168201915b5050505050905090565b6000611061826000611d9a565b9050919050565b600080611073611eaf565b9050611080818585611eb7565b600191505092915050565b6000611098826001612082565b9050919050565b6000806000600c60008573ffffffffffffffffffffffffffffffffffffffff1673ffffffffffffffffffffffffffffffffffffffff16815260200190815260200160002060000154600c60008673ffffffffffffffffffffffffffffffffffffffff1673ffffffffffffffffffffffffffffffffffffffff16815260200190815260200160002060020154600c60008773ffffffffffffffffffffffffffffffffffffffff1673ffffffffffffffffffffffffffffffffffffffff168152602001908152602001600020600101549250925092509193909250565b6000600254905090565b730100546f2cd4c9d97f798ffc9755e47865ff7ee681565b6000806111a7611eaf565b90506111b485828561214b565b6111bf8585856121d7565b60019150509392505050565b600060066000838152602001908152602001600020600101549050919050565b6111f4826111cb565b6111fd81612458565b611207838361246c565b505050565b60006012905090565b600061121f61254d565b905090565b61122c611eaf565b73ffffffffffffffffffffffffffffffffffffffff168173ffffffffffffffffffffffffffffffffffffffff1614611299576040517f08c379a000000000000000000000000000000000000000000000000000000000815260040161129090614154565b60405180910390fd5b6112a38282612667565b5050565b60007f0000000000000000000000000000000000000000000000000000000000000000905090565b6000806112da611eaf565b90506112fb8185856112ec8589611c41565b6112f691906141a3565b611eb7565b600191505092915050565b7f65d7a28e3265b37a6474929f336521b332c1681b933f6cb9f3376673440d862a61133081612458565b611338612749565b50565b600068056bc75e2d631000009050919050565b7f9f2df0fed2c77648de5860a4cc508cd0818c85b8b8a1ab4ceeef8d981c8956a661137881612458565b61138283836127ac565b505050565b611398611392611eaf565b8261290c565b50565b6000806000600d84815481106113b4576113b36141f9565b5b90600052602060002090600202019050806000015481600101549250925050915091565b60006113e5826000611d9a565b9050919050565b73a258c4606ca8206d8aa700ce2143d7db854d168c81565b6000600560009054906101000a900460ff16905090565b60003373ffffffffffffffffffffffffffffffffffffffff168273ffffffffffffffffffffffffffffffffffffffff161461148b576040517f08c379a000000000000000000000000000000000000000000000000000000000815260040161148290614274565b60405180910390fd5b6114948261133b565b8311156114d6576040517f08c379a00000000000000000000000000000000000000000000000000000000081526004016114cd906142e0565b60405180910390fd5b600a5483101561151b576040517f08c379a00000000000000000000000000000000000000000000000000000000081526004016115129061434c565b60405180910390fd5b60006115278484612ae3565b905060007333c0024ebC7A8989c1aE32988d5402295c8fd42B905060008173ffffffffffffffffffffffffffffffffffffffff16635e5c06e2306040518263ffffffff1660e01b815260040161157d9190613d03565b60006040518083038186803b15801561159557600080fd5b505afa1580156115a9573d6000803e3d6000fd5b505050506040513d6000823e3d601f19601f820116820180604052508101906115d291906144ff565b50905080935050505092915050565b60008060008373ffffffffffffffffffffffffffffffffffffffff1673ffffffffffffffffffffffffffffffffffffffff168152602001908152602001600020549050919050565b61163b82611635611eaf565b8361214b565b611645828261290c565b5050565b6000611692600760008473ffffffffffffffffffffffffffffffffffffffff1673ffffffffffffffffffffffffffffffffffffffff168152602001908152602001600020612b5a565b9050919050565b7f65d7a28e3265b37a6474929f336521b332c1681b933f6cb9f3376673440d862a6116c381612458565b6116cb612b68565b50565b60006006600084815260200190815260200160002060000160008373ffffffffffffffffffffffffffffffffffffffff1673ffffffffffffffffffffffffffffffffffffffff16815260200190815260200160002060009054906101000a900460ff16905092915050565b600061174482611a01565b831115611786576040517f08c379a000000000000000000000000000000000000000000000000000000000815260040161177d906145a7565b60405180910390fd5b6000611791846118e3565b90506117a661179e611eaf565b848387612bcb565b8091505092915050565b6060600480546117bf906140b0565b80601f01602080910402602001604051908101604052809291908181526020018280546117eb906140b0565b80156118385780601f1061180d57610100808354040283529160200191611838565b820191906000526020600020905b81548152906001019060200180831161181b57829003601f168201915b5050505050905090565b6000801b81565b600080611854611eaf565b905060006118628286611c41565b9050838110156118a7576040517f08c379a000000000000000000000000000000000000000000000000000000000815260040161189e90614639565b60405180910390fd5b6118b48286868403611eb7565b60019250505092915050565b6000806118cb611eaf565b90506118d88185856121d7565b600191505092915050565b60006118f0826001611d9a565b9050919050565b600061190282611a3f565b841115611944576040517f08c379a000000000000000000000000000000000000000000000000000000000815260040161193b906146a5565b60405180910390fd5b600061194f8561108b565b905061196561195c611eaf565b85858885612c6e565b809150509392505050565b600061197b82611c2f565b8411156119bd576040517f08c379a00000000000000000000000000000000000000000000000000000000081526004016119b490614711565b60405180910390fd5b60006119c8856113d8565b90506119de6119d5611eaf565b85858489612c6e565b809150509392505050565b7333c0024ebC7A8989c1aE32988d5402295c8fd42B81565b60007fffffffffffffffffffffffffffffffffffffffffffffffffffffffffffffffff9050919050565b6000611a38826000612082565b9050919050565b6000611a54611a4d836115e1565b6000611d9a565b9050919050565b736509f2a854BA7441039fCE3b959d5bAdd2fFCFCD81565b83421115611ab6576040517f08c379a0000000000000000000000000000000000000000000000000000000008152600401611aad9061477d565b60405180910390fd5b60007f6e71edae12b1b97f4d1f60370fef10105fa2faae0126114a169c64845d6126c9888888611ae58c612d67565b89604051602001611afb9695949392919061479d565b6040516020818303038152906040528051906020012090506000611b1e82612dc5565b90506000611b2e82878787612ddf565b90508973ffffffffffffffffffffffffffffffffffffffff168173ffffffffffffffffffffffffffffffffffffffff1614611b9e576040517f08c379a0000000000000000000000000000000000000000000000000000000008152600401611b959061484a565b60405180910390fd5b611ba98a8a8a611eb7565b50505050505050505050565b7f9f2df0fed2c77648de5860a4cc508cd0818c85b8b8a1ab4ceeef8d981c8956a681565b611be2826111cb565b611beb81612458565b611bf58383612667565b505050565b7f241ecf16d79d0f8dbfb92cbc07fe17840425976cf0667f022fe9877caa831b08611c2481612458565b81600a819055505050565b6000611c3a826115e1565b9050919050565b6000600160008473ffffffffffffffffffffffffffffffffffffffff1673ffffffffffffffffffffffffffffffffffffffff16815260200190815260200160002060008373ffffffffffffffffffffffffffffffffffffffff1673ffffffffffffffffffffffffffffffffffffffff16815260200190815260200160002054905092915050565b600a5481565b7f65d7a28e3265b37a6474929f336521b332c1681b933f6cb9f3376673440d862a81565b7f241ecf16d79d0f8dbfb92cbc07fe17840425976cf0667f022fe9877caa831b0881565b6000611d23826000612082565b9050919050565b600b5481565b60007f01ffc9a7000000000000000000000000000000000000000000000000000000007bffffffffffffffffffffffffffffffffffffffffffffffffffffffff1916827bffffffffffffffffffffffffffffffffffffffffffffffffffffffff1916149050919050565b600080611da561117a565b905060008114611dd257611dcd611dba610e98565b828587612e0a909392919063ffffffff16565b611ea6565b611ea57f000000000000000000000000000000000000000000000000000000000000000073ffffffffffffffffffffffffffffffffffffffff1663313ce5676040518163ffffffff1660e01b815260040160206040518083038186803b158015611e3b57600080fd5b505afa158015611e4f573d6000803e3d6000fd5b505050506040513d601f19601f82011682018060405250810190611e73919061487f565b600a611e7f91906149df565b611e8761120c565b600a611e9391906149df565b8587612e0a909392919063ffffffff16565b5b91505092915050565b600033905090565b600073ffffffffffffffffffffffffffffffffffffffff168373ffffffffffffffffffffffffffffffffffffffff161415611f27576040517f08c379a0000000000000000000000000000000000000000000000000000000008152600401611f1e90614a9c565b60405180910390fd5b600073ffffffffffffffffffffffffffffffffffffffff168273ffffffffffffffffffffffffffffffffffffffff161415611f97576040517f08c379a0000000000000000000000000000000000000000000000000000000008152600401611f8e90614b2e565b60405180910390fd5b80600160008573ffffffffffffffffffffffffffffffffffffffff1673ffffffffffffffffffffffffffffffffffffffff16815260200190815260200160002060008473ffffffffffffffffffffffffffffffffffffffff1673ffffffffffffffffffffffffffffffffffffffff168152602001908152602001600020819055508173ffffffffffffffffffffffffffffffffffffffff168373ffffffffffffffffffffffffffffffffffffffff167f8c5be1e5ebec7d5bd14f71427d1e84f3dd0314c0f7b2291e5b200ac8c7c3b9258360405161207591906139f4565b60405180910390a3505050565b60008061208d6112a7565b905061214261209a61120c565b600a6120a691906149df565b8273ffffffffffffffffffffffffffffffffffffffff1663313ce5676040518163ffffffff1660e01b815260040160206040518083038186803b1580156120ec57600080fd5b505afa158015612100573d6000803e3d6000fd5b505050506040513d601f19601f820116820180604052508101906121249190614054565b600a6121309190614b4e565b8587612e0a909392919063ffffffff16565b91505092915050565b60006121578484611c41565b90507fffffffffffffffffffffffffffffffffffffffffffffffffffffffffffffffff81146121d157818110156121c3576040517f08c379a00000000000000000000000000000000000000000000000000000000081526004016121ba90614be5565b60405180910390fd5b6121d08484848403611eb7565b5b50505050565b600073ffffffffffffffffffffffffffffffffffffffff168373ffffffffffffffffffffffffffffffffffffffff161415612247576040517f08c379a000000000000000000000000000000000000000000000000000000000815260040161223e90614c77565b60405180910390fd5b600073ffffffffffffffffffffffffffffffffffffffff168273ffffffffffffffffffffffffffffffffffffffff1614156122b7576040517f08c379a00000000000000000000000000000000000000000000000000000000081526004016122ae90614d09565b60405180910390fd5b6122c2838383612e80565b60008060008573ffffffffffffffffffffffffffffffffffffffff1673ffffffffffffffffffffffffffffffffffffffff16815260200190815260200160002054905081811015612348576040517f08c379a000000000000000000000000000000000000000000000000000000000815260040161233f90614d9b565b60405180910390fd5b8181036000808673ffffffffffffffffffffffffffffffffffffffff1673ffffffffffffffffffffffffffffffffffffffff16815260200190815260200160002081905550816000808573ffffffffffffffffffffffffffffffffffffffff1673ffffffffffffffffffffffffffffffffffffffff16815260200190815260200160002060008282546123db91906141a3565b925050819055508273ffffffffffffffffffffffffffffffffffffffff168473ffffffffffffffffffffffffffffffffffffffff167fddf252ad1be2c89b69c2b068fc378daa952ba7f163c4a11628f55a4df523b3ef8460405161243f91906139f4565b60405180910390a3612452848484612e98565b50505050565b61246981612464611eaf565b612e9d565b50565b61247682826116ce565b6125495760016006600084815260200190815260200160002060000160008373ffffffffffffffffffffffffffffffffffffffff1673ffffffffffffffffffffffffffffffffffffffff16815260200190815260200160002060006101000a81548160ff0219169083151502179055506124ee611eaf565b73ffffffffffffffffffffffffffffffffffffffff168173ffffffffffffffffffffffffffffffffffffffff16837f2f8788117e7eff1d82e926ec794901d17c78024a50270940304540a733656f0d60405160405180910390a45b5050565b60007f000000000000000000000000000000000000000000000000000000000000000073ffffffffffffffffffffffffffffffffffffffff163073ffffffffffffffffffffffffffffffffffffffff161480156125c957507f000000000000000000000000000000000000000000000000000000000000000046145b156125f6577f00000000000000000000000000000000000000000000000000000000000000009050612664565b6126617f00000000000000000000000000000000000000000000000000000000000000007f00000000000000000000000000000000000000000000000000000000000000007f0000000000000000000000000000000000000000000000000000000000000000612f3a565b90505b90565b61267182826116ce565b156127455760006006600084815260200190815260200160002060000160008373ffffffffffffffffffffffffffffffffffffffff1673ffffffffffffffffffffffffffffffffffffffff16815260200190815260200160002060006101000a81548160ff0219169083151502179055506126ea611eaf565b73ffffffffffffffffffffffffffffffffffffffff168173ffffffffffffffffffffffffffffffffffffffff16837ff6391f5c32d9c69d2a47ea670b442974b53935d1edc7fd64eb21e047a839171b60405160405180910390a45b5050565b612751612f74565b6000600560006101000a81548160ff0219169083151502179055507f5db9ee0a495bf2e6ff9c91a7834c1ba4fdd244a5e8aa4e537bd38aeae4b073aa612795611eaf565b6040516127a29190613d03565b60405180910390a1565b600073ffffffffffffffffffffffffffffffffffffffff168273ffffffffffffffffffffffffffffffffffffffff16141561281c576040517f08c379a000000000000000000000000000000000000000000000000000000000815260040161281390614e07565b60405180910390fd5b61282860008383612e80565b806002600082825461283a91906141a3565b92505081905550806000808473ffffffffffffffffffffffffffffffffffffffff1673ffffffffffffffffffffffffffffffffffffffff168152602001908152602001600020600082825461288f91906141a3565b925050819055508173ffffffffffffffffffffffffffffffffffffffff16600073ffffffffffffffffffffffffffffffffffffffff167fddf252ad1be2c89b69c2b068fc378daa952ba7f163c4a11628f55a4df523b3ef836040516128f491906139f4565b60405180910390a361290860008383612e98565b5050565b600073ffffffffffffffffffffffffffffffffffffffff168273ffffffffffffffffffffffffffffffffffffffff16141561297c576040517f08c379a000000000000000000000000000000000000000000000000000000000815260040161297390614e99565b60405180910390fd5b61298882600083612e80565b60008060008473ffffffffffffffffffffffffffffffffffffffff1673ffffffffffffffffffffffffffffffffffffffff16815260200190815260200160002054905081811015612a0e576040517f08c379a0000000000000000000000000000000000000000000000000000000008152600401612a0590614f2b565b60405180910390fd5b8181036000808573ffffffffffffffffffffffffffffffffffffffff1673ffffffffffffffffffffffffffffffffffffffff168152602001908152602001600020819055508160026000828254612a659190614f4b565b92505081905550600073ffffffffffffffffffffffffffffffffffffffff168373ffffffffffffffffffffffffffffffffffffffff167fddf252ad1be2c89b69c2b068fc378daa952ba7f163c4a11628f55a4df523b3ef84604051612aca91906139f4565b60405180910390a3612ade83600084612e98565b505050565b6000612aee8261133b565b831115612b30576040517f08c379a0000000000000000000000000000000000000000000000000000000008152600401612b2790614fcb565b60405180910390fd5b6000612b3b84611d16565b9050612b50612b48611eaf565b848684612bcb565b8091505092915050565b600081600001549050919050565b612b70612fbd565b6001600560006101000a81548160ff0219169083151502179055507f62e78cea01bee320cd4e420270b5ea74000d11b0c9f74754ebdbfc544b05a258612bb4611eaf565b604051612bc19190613d03565b60405180910390a1565b612bf77f0000000000000000000000000000000000000000000000000000000000000000853085613007565b612c0183826127ac565b8273ffffffffffffffffffffffffffffffffffffffff168473ffffffffffffffffffffffffffffffffffffffff167fdcbc1c05240f31ff3ad067ef1ee35ce4997762752e3a095284754544f4c709d78484604051612c60929190613e75565b60405180910390a350505050565b8273ffffffffffffffffffffffffffffffffffffffff168573ffffffffffffffffffffffffffffffffffffffff1614612cad57612cac83868361214b565b5b612cb7838261290c565b612ce27f00000000000000000000000000000000000000000000000000000000000000008584613090565b8273ffffffffffffffffffffffffffffffffffffffff168473ffffffffffffffffffffffffffffffffffffffff168673ffffffffffffffffffffffffffffffffffffffff167ffbde797d201c681b91056529119e0b02407c7bb96a4a2c75c01fc9667232c8db8585604051612d58929190613e75565b60405180910390a45050505050565b600080600760008473ffffffffffffffffffffffffffffffffffffffff1673ffffffffffffffffffffffffffffffffffffffff1681526020019081526020016000209050612db481612b5a565b9150612dbf81613116565b50919050565b6000612dd8612dd261254d565b8361312c565b9050919050565b6000806000612df08787878761315f565b91509150612dfd8161326c565b8192505050949350505050565b600080612e18868686613441565b905060016002811115612e2e57612e2d614feb565b5b836002811115612e4157612e40614feb565b5b148015612e5f575060008480612e5a57612e5961501a565b5b868809115b15612e7457600181612e7191906141a3565b90505b80915050949350505050565b612e88612fbd565b612e9383838361351d565b505050565b505050565b612ea782826116ce565b612f3657612ecc8173ffffffffffffffffffffffffffffffffffffffff166014613522565b612eda8360001c6020613522565b604051602001612eeb92919061511d565b6040516020818303038152906040526040517f08c379a0000000000000000000000000000000000000000000000000000000008152600401612f2d9190613b77565b60405180910390fd5b5050565b60008383834630604051602001612f55959493929190615157565b6040516020818303038152906040528051906020012090509392505050565b612f7c611404565b612fbb576040517f08c379a0000000000000000000000000000000000000000000000000000000008152600401612fb2906151f6565b60405180910390fd5b565b612fc5611404565b15613005576040517f08c379a0000000000000000000000000000000000000000000000000000000008152600401612ffc90615262565b60405180910390fd5b565b61308a846323b872dd60e01b85858560405160240161302893929190615282565b604051602081830303815290604052907bffffffffffffffffffffffffffffffffffffffffffffffffffffffff19166020820180517bffffffffffffffffffffffffffffffffffffffffffffffffffffffff838183161783525050505061375e565b50505050565b6131118363a9059cbb60e01b84846040516024016130af9291906152b9565b604051602081830303815290604052907bffffffffffffffffffffffffffffffffffffffffffffffffffffffff19166020820180517bffffffffffffffffffffffffffffffffffffffffffffffffffffffff838183161783525050505061375e565b505050565b6001816000016000828254019250508190555050565b6000828260405160200161314192919061534f565b60405160208183030381529060405280519060200120905092915050565b6000807f7fffffffffffffffffffffffffffffff5d576e7357a4501ddfe92f46681b20a08360001c111561319a576000600391509150613263565b601b8560ff16141580156131b25750601c8560ff1614155b156131c4576000600491509150613263565b6000600187878787604051600081526020016040526040516131e99493929190615386565b6020604051602081039080840390855afa15801561320b573d6000803e3d6000fd5b505050602060405103519050600073ffffffffffffffffffffffffffffffffffffffff168173ffffffffffffffffffffffffffffffffffffffff16141561325a57600060019250925050613263565b80600092509250505b94509492505050565b600060048111156132805761327f614feb565b5b81600481111561329357613292614feb565b5b141561329e5761343e565b600160048111156132b2576132b1614feb565b5b8160048111156132c5576132c4614feb565b5b1415613306576040517f08c379a00000000000000000000000000000000000000000000000000000000081526004016132fd90615417565b60405180910390fd5b6002600481111561331a57613319614feb565b5b81600481111561332d5761332c614feb565b5b141561336e576040517f08c379a000000000000000000000000000000000000000000000000000000000815260040161336590615483565b60405180910390fd5b6003600481111561338257613381614feb565b5b81600481111561339557613394614feb565b5b14156133d6576040517f08c379a00000000000000000000000000000000000000000000000000000000081526004016133cd90615515565b60405180910390fd5b6004808111156133e9576133e8614feb565b5b8160048111156133fc576133fb614feb565b5b141561343d576040517f08c379a0000000000000000000000000000000000000000000000000000000008152600401613434906155a7565b60405180910390fd5b5b50565b60008060008019858709858702925082811083820303915050600081141561347d578382816134735761347261501a565b5b0492505050613516565b80841161348957600080fd5b60008486880990508281118203915080830392506000600186190186169050808604955080840493506001818260000304019050808302841793506000600287600302189050808702600203810290508087026002038102905080870260020381029050808702600203810290508087026002038102905080870260020381029050808502955050505050505b9392505050565b505050565b60606000600283600261353591906155c7565b61353f91906141a3565b67ffffffffffffffff811115613558576135576143a7565b5b6040519080825280601f01601f19166020018201604052801561358a5781602001600182028036833780820191505090505b5090507f3000000000000000000000000000000000000000000000000000000000000000816000815181106135c2576135c16141f9565b5b60200101907effffffffffffffffffffffffffffffffffffffffffffffffffffffffffffff1916908160001a9053507f780000000000000000000000000000000000000000000000000000000000000081600181518110613626576136256141f9565b5b60200101907effffffffffffffffffffffffffffffffffffffffffffffffffffffffffffff1916908160001a9053506000600184600261366691906155c7565b61367091906141a3565b90505b6001811115613710577f3031323334353637383961626364656600000000000000000000000000000000600f8616601081106136b2576136b16141f9565b5b1a60f81b8282815181106136c9576136c86141f9565b5b60200101907effffffffffffffffffffffffffffffffffffffffffffffffffffffffffffff1916908160001a905350600485901c94508061370990615621565b9050613673565b5060008414613754576040517f08c379a000000000000000000000000000000000000000000000000000000000815260040161374b90615697565b60405180910390fd5b8091505092915050565b60006137c0826040518060400160405280602081526020017f5361666545524332303a206c6f772d6c6576656c2063616c6c206661696c65648152508573ffffffffffffffffffffffffffffffffffffffff166138259092919063ffffffff16565b905060008151111561382057808060200190518101906137e091906156e3565b61381f576040517f08c379a000000000000000000000000000000000000000000000000000000000815260040161381690615782565b60405180910390fd5b5b505050565b6060613834848460008561383d565b90509392505050565b606082471015613882576040517f08c379a000000000000000000000000000000000000000000000000000000000815260040161387990615814565b60405180910390fd5b61388b85613951565b6138ca576040517f08c379a00000000000000000000000000000000000000000000000000000000081526004016138c190615880565b60405180910390fd5b6000808673ffffffffffffffffffffffffffffffffffffffff1685876040516138f391906158e7565b60006040518083038185875af1925050503d8060008114613930576040519150601f19603f3d011682016040523d82523d6000602084013e613935565b606091505b5091509150613945828286613974565b92505050949350505050565b6000808273ffffffffffffffffffffffffffffffffffffffff163b119050919050565b60608315613984578290506139d4565b6000835111156139975782518084602001fd5b816040517f08c379a00000000000000000000000000000000000000000000000000000000081526004016139cb9190613b77565b60405180910390fd5b9392505050565b6000819050919050565b6139ee816139db565b82525050565b6000602082019050613a0960008301846139e5565b92915050565b6000604051905090565b600080fd5b600080fd5b60007fffffffff0000000000000000000000000000000000000000000000000000000082169050919050565b613a5881613a23565b8114613a6357600080fd5b50565b600081359050613a7581613a4f565b92915050565b600060208284031215613a9157613a90613a19565b5b6000613a9f84828501613a66565b91505092915050565b60008115159050919050565b613abd81613aa8565b82525050565b6000602082019050613ad86000830184613ab4565b92915050565b600081519050919050565b600082825260208201905092915050565b60005b83811015613b18578082015181840152602081019050613afd565b83811115613b27576000848401525b50505050565b6000601f19601f8301169050919050565b6000613b4982613ade565b613b538185613ae9565b9350613b63818560208601613afa565b613b6c81613b2d565b840191505092915050565b60006020820190508181036000830152613b918184613b3e565b905092915050565b613ba2816139db565b8114613bad57600080fd5b50565b600081359050613bbf81613b99565b92915050565b600060208284031215613bdb57613bda613a19565b5b6000613be984828501613bb0565b91505092915050565b600073ffffffffffffffffffffffffffffffffffffffff82169050919050565b6000613c1d82613bf2565b9050919050565b613c2d81613c12565b8114613c3857600080fd5b50565b600081359050613c4a81613c24565b92915050565b60008060408385031215613c6757613c66613a19565b5b6000613c7585828601613c3b565b9250506020613c8685828601613bb0565b9150509250929050565b600060208284031215613ca657613ca5613a19565b5b6000613cb484828501613c3b565b91505092915050565b6000606082019050613cd260008301866139e5565b613cdf60208301856139e5565b613cec60408301846139e5565b949350505050565b613cfd81613c12565b82525050565b6000602082019050613d186000830184613cf4565b92915050565b600080600060608486031215613d3757613d36613a19565b5b6000613d4586828701613c3b565b9350506020613d5686828701613c3b565b9250506040613d6786828701613bb0565b9150509250925092565b6000819050919050565b613d8481613d71565b8114613d8f57600080fd5b50565b600081359050613da181613d7b565b92915050565b600060208284031215613dbd57613dbc613a19565b5b6000613dcb84828501613d92565b91505092915050565b613ddd81613d71565b82525050565b6000602082019050613df86000830184613dd4565b92915050565b60008060408385031215613e1557613e14613a19565b5b6000613e2385828601613d92565b9250506020613e3485828601613c3b565b9150509250929050565b600060ff82169050919050565b613e5481613e3e565b82525050565b6000602082019050613e6f6000830184613e4b565b92915050565b6000604082019050613e8a60008301856139e5565b613e9760208301846139e5565b9392505050565b60008060408385031215613eb557613eb4613a19565b5b6000613ec385828601613bb0565b9250506020613ed485828601613c3b565b9150509250929050565b600080600060608486031215613ef757613ef6613a19565b5b6000613f0586828701613bb0565b9350506020613f1686828701613c3b565b9250506040613f2786828701613c3b565b9150509250925092565b613f3a81613e3e565b8114613f4557600080fd5b50565b600081359050613f5781613f31565b92915050565b600080600080600080600060e0888a031215613f7c57613f7b613a19565b5b6000613f8a8a828b01613c3b565b9750506020613f9b8a828b01613c3b565b9650506040613fac8a828b01613bb0565b9550506060613fbd8a828b01613bb0565b9450506080613fce8a828b01613f48565b93505060a0613fdf8a828b01613d92565b92505060c0613ff08a828b01613d92565b91505092959891949750929550565b6000806040838503121561401657614015613a19565b5b600061402485828601613c3b565b925050602061403585828601613c3b565b9150509250929050565b60008151905061404e81613b99565b92915050565b60006020828403121561406a57614069613a19565b5b60006140788482850161403f565b91505092915050565b7f4e487b7100000000000000000000000000000000000000000000000000000000600052602260045260246000fd5b600060028204905060018216806140c857607f821691505b602082108114156140dc576140db614081565b5b50919050565b7f416363657373436f6e74726f6c3a2063616e206f6e6c792072656e6f756e636560008201527f20726f6c657320666f722073656c660000000000000000000000000000000000602082015250565b600061413e602f83613ae9565b9150614149826140e2565b604082019050919050565b6000602082019050818103600083015261416d81614131565b9050919050565b7f4e487b7100000000000000000000000000000000000000000000000000000000600052601160045260246000fd5b60006141ae826139db565b91506141b9836139db565b9250827fffffffffffffffffffffffffffffffffffffffffffffffffffffffffffffffff038211156141ee576141ed614174565b5b828201905092915050565b7f4e487b7100000000000000000000000000000000000000000000000000000000600052603260045260246000fd5b7f596f752063616e206f6e6c79206465706f73697420746f20796f757273656c66600082015250565b600061425e602083613ae9565b915061426982614228565b602082019050919050565b6000602082019050818103600083015261428d81614251565b9050919050565b7f4d6178696d756d206465706f7369742069732031302057455448000000000000600082015250565b60006142ca601a83613ae9565b91506142d582614294565b602082019050919050565b600060208201905081810360008301526142f9816142bd565b9050919050565b7f4465706f73697420756e64657220666f6c64696e675468726573686f6c640000600082015250565b6000614336601e83613ae9565b915061434182614300565b602082019050919050565b6000602082019050818103600083015261436581614329565b9050919050565b6000819050919050565b61437f8161436c565b811461438a57600080fd5b50565b60008151905061439c81614376565b92915050565b600080fd5b7f4e487b7100000000000000000000000000000000000000000000000000000000600052604160045260246000fd5b6143df82613b2d565b810181811067ffffffffffffffff821117156143fe576143fd6143a7565b5b80604052505050565b6000614411613a0f565b905061441d82826143d6565b919050565b600067ffffffffffffffff82111561443d5761443c6143a7565b5b602082029050602081019050919050565b600080fd5b60008151905061446281613c24565b92915050565b600061447b61447684614422565b614407565b9050808382526020820190506020840283018581111561449e5761449d61444e565b5b835b818110156144c757806144b38882614453565b8452602084019350506020810190506144a0565b5050509392505050565b600082601f8301126144e6576144e56143a2565b5b81516144f6848260208601614468565b91505092915050565b6000806040838503121561451657614515613a19565b5b60006145248582860161438d565b925050602083015167ffffffffffffffff81111561454557614544613a1e565b5b614551858286016144d1565b9150509250929050565b7f455243343632363a206d696e74206d6f7265207468616e206d61780000000000600082015250565b6000614591601b83613ae9565b915061459c8261455b565b602082019050919050565b600060208201905081810360008301526145c081614584565b9050919050565b7f45524332303a2064656372656173656420616c6c6f77616e63652062656c6f7760008201527f207a65726f000000000000000000000000000000000000000000000000000000602082015250565b6000614623602583613ae9565b915061462e826145c7565b604082019050919050565b6000602082019050818103600083015261465281614616565b9050919050565b7f455243343632363a207769746864726177206d6f7265207468616e206d617800600082015250565b600061468f601f83613ae9565b915061469a82614659565b602082019050919050565b600060208201905081810360008301526146be81614682565b9050919050565b7f455243343632363a2072656465656d206d6f7265207468616e206d6178000000600082015250565b60006146fb601d83613ae9565b9150614706826146c5565b602082019050919050565b6000602082019050818103600083015261472a816146ee565b9050919050565b7f45524332305065726d69743a206578706972656420646561646c696e65000000600082015250565b6000614767601d83613ae9565b915061477282614731565b602082019050919050565b600060208201905081810360008301526147968161475a565b9050919050565b600060c0820190506147b26000830189613dd4565b6147bf6020830188613cf4565b6147cc6040830187613cf4565b6147d960608301866139e5565b6147e660808301856139e5565b6147f360a08301846139e5565b979650505050505050565b7f45524332305065726d69743a20696e76616c6964207369676e61747572650000600082015250565b6000614834601e83613ae9565b915061483f826147fe565b602082019050919050565b6000602082019050818103600083015261486381614827565b9050919050565b60008151905061487981613f31565b92915050565b60006020828403121561489557614894613a19565b5b60006148a38482850161486a565b91505092915050565b60008160011c9050919050565b6000808291508390505b6001851115614903578086048111156148df576148de614174565b5b60018516156148ee5780820291505b80810290506148fc856148ac565b94506148c3565b94509492505050565b60008261491c57600190506149d8565b8161492a57600090506149d8565b8160018114614940576002811461494a57614979565b60019150506149d8565b60ff84111561495c5761495b614174565b5b8360020a91508482111561497357614972614174565b5b506149d8565b5060208310610133831016604e8410600b84101617156149ae5782820a9050838111156149a9576149a8614174565b5b6149d8565b6149bb84848460016148b9565b925090508184048111156149d2576149d1614174565b5b81810290505b9392505050565b60006149ea826139db565b91506149f583613e3e565b9250614a227fffffffffffffffffffffffffffffffffffffffffffffffffffffffffffffffff848461490c565b905092915050565b7f45524332303a20617070726f76652066726f6d20746865207a65726f2061646460008201527f7265737300000000000000000000000000000000000000000000000000000000602082015250565b6000614a86602483613ae9565b9150614a9182614a2a565b604082019050919050565b60006020820190508181036000830152614ab581614a79565b9050919050565b7f45524332303a20617070726f766520746f20746865207a65726f20616464726560008201527f7373000000000000000000000000000000000000000000000000000000000000602082015250565b6000614b18602283613ae9565b9150614b2382614abc565b604082019050919050565b60006020820190508181036000830152614b4781614b0b565b9050919050565b6000614b59826139db565b9150614b64836139db565b9250614b917fffffffffffffffffffffffffffffffffffffffffffffffffffffffffffffffff848461490c565b905092915050565b7f45524332303a20696e73756666696369656e7420616c6c6f77616e6365000000600082015250565b6000614bcf601d83613ae9565b9150614bda82614b99565b602082019050919050565b60006020820190508181036000830152614bfe81614bc2565b9050919050565b7f45524332303a207472616e736665722066726f6d20746865207a65726f20616460008201527f6472657373000000000000000000000000000000000000000000000000000000602082015250565b6000614c61602583613ae9565b9150614c6c82614c05565b604082019050919050565b60006020820190508181036000830152614c9081614c54565b9050919050565b7f45524332303a207472616e7366657220746f20746865207a65726f206164647260008201527f6573730000000000000000000000000000000000000000000000000000000000602082015250565b6000614cf3602383613ae9565b9150614cfe82614c97565b604082019050919050565b60006020820190508181036000830152614d2281614ce6565b9050919050565b7f45524332303a207472616e7366657220616d6f756e742065786365656473206260008201527f616c616e63650000000000000000000000000000000000000000000000000000602082015250565b6000614d85602683613ae9565b9150614d9082614d29565b604082019050919050565b60006020820190508181036000830152614db481614d78565b9050919050565b7f45524332303a206d696e7420746f20746865207a65726f206164647265737300600082015250565b6000614df1601f83613ae9565b9150614dfc82614dbb565b602082019050919050565b60006020820190508181036000830152614e2081614de4565b9050919050565b7f45524332303a206275726e2066726f6d20746865207a65726f2061646472657360008201527f7300000000000000000000000000000000000000000000000000000000000000602082015250565b6000614e83602183613ae9565b9150614e8e82614e27565b604082019050919050565b60006020820190508181036000830152614eb281614e76565b9050919050565b7f45524332303a206275726e20616d6f756e7420657863656564732062616c616e60008201527f6365000000000000000000000000000000000000000000000000000000000000602082015250565b6000614f15602283613ae9565b9150614f2082614eb9565b604082019050919050565b60006020820190508181036000830152614f4481614f08565b9050919050565b6000614f56826139db565b9150614f61836139db565b925082821015614f7457614f73614174565b5b828203905092915050565b7f455243343632363a206465706f736974206d6f7265207468616e206d61780000600082015250565b6000614fb5601e83613ae9565b9150614fc082614f7f565b602082019050919050565b60006020820190508181036000830152614fe481614fa8565b9050919050565b7f4e487b7100000000000000000000000000000000000000000000000000000000600052602160045260246000fd5b7f4e487b7100000000000000000000000000000000000000000000000000000000600052601260045260246000fd5b600081905092915050565b7f416363657373436f6e74726f6c3a206163636f756e7420000000000000000000600082015250565b600061508a601783615049565b915061509582615054565b601782019050919050565b60006150ab82613ade565b6150b58185615049565b93506150c5818560208601613afa565b80840191505092915050565b7f206973206d697373696e6720726f6c6520000000000000000000000000000000600082015250565b6000615107601183615049565b9150615112826150d1565b601182019050919050565b60006151288261507d565b915061513482856150a0565b915061513f826150fa565b915061514b82846150a0565b91508190509392505050565b600060a08201905061516c6000830188613dd4565b6151796020830187613dd4565b6151866040830186613dd4565b61519360608301856139e5565b6151a06080830184613cf4565b9695505050505050565b7f5061757361626c653a206e6f7420706175736564000000000000000000000000600082015250565b60006151e0601483613ae9565b91506151eb826151aa565b602082019050919050565b6000602082019050818103600083015261520f816151d3565b9050919050565b7f5061757361626c653a2070617573656400000000000000000000000000000000600082015250565b600061524c601083613ae9565b915061525782615216565b602082019050919050565b6000602082019050818103600083015261527b8161523f565b9050919050565b60006060820190506152976000830186613cf4565b6152a46020830185613cf4565b6152b160408301846139e5565b949350505050565b60006040820190506152ce6000830185613cf4565b6152db60208301846139e5565b9392505050565b7f1901000000000000000000000000000000000000000000000000000000000000600082015250565b6000615318600283615049565b9150615323826152e2565b600282019050919050565b6000819050919050565b61534961534482613d71565b61532e565b82525050565b600061535a8261530b565b91506153668285615338565b6020820191506153768284615338565b6020820191508190509392505050565b600060808201905061539b6000830187613dd4565b6153a86020830186613e4b565b6153b56040830185613dd4565b6153c26060830184613dd4565b95945050505050565b7f45434453413a20696e76616c6964207369676e61747572650000000000000000600082015250565b6000615401601883613ae9565b915061540c826153cb565b602082019050919050565b60006020820190508181036000830152615430816153f4565b9050919050565b7f45434453413a20696e76616c6964207369676e6174757265206c656e67746800600082015250565b600061546d601f83613ae9565b915061547882615437565b602082019050919050565b6000602082019050818103600083015261549c81615460565b9050919050565b7f45434453413a20696e76616c6964207369676e6174757265202773272076616c60008201527f7565000000000000000000000000000000000000000000000000000000000000602082015250565b60006154ff602283613ae9565b915061550a826154a3565b604082019050919050565b6000602082019050818103600083015261552e816154f2565b9050919050565b7f45434453413a20696e76616c6964207369676e6174757265202776272076616c60008201527f7565000000000000000000000000000000000000000000000000000000000000602082015250565b6000615591602283613ae9565b915061559c82615535565b604082019050919050565b600060208201905081810360008301526155c081615584565b9050919050565b60006155d2826139db565b91506155dd836139db565b9250817fffffffffffffffffffffffffffffffffffffffffffffffffffffffffffffffff048311821515161561561657615615614174565b5b828202905092915050565b600061562c826139db565b915060008214156156405761563f614174565b5b600182039050919050565b7f537472696e67733a20686578206c656e67746820696e73756666696369656e74600082015250565b6000615681602083613ae9565b915061568c8261564b565b602082019050919050565b600060208201905081810360008301526156b081615674565b9050919050565b6156c081613aa8565b81146156cb57600080fd5b50565b6000815190506156dd816156b7565b92915050565b6000602082840312156156f9576156f8613a19565b5b6000615707848285016156ce565b91505092915050565b7f5361666545524332303a204552433230206f7065726174696f6e20646964206e60008201527f6f74207375636365656400000000000000000000000000000000000000000000602082015250565b600061576c602a83613ae9565b915061577782615710565b604082019050919050565b6000602082019050818103600083015261579b8161575f565b9050919050565b7f416464726573733a20696e73756666696369656e742062616c616e636520666f60008201527f722063616c6c0000000000000000000000000000000000000000000000000000602082015250565b60006157fe602683613ae9565b9150615809826157a2565b604082019050919050565b6000602082019050818103600083015261582d816157f1565b9050919050565b7f416464726573733a2063616c6c20746f206e6f6e2d636f6e7472616374000000600082015250565b600061586a601d83613ae9565b915061587582615834565b602082019050919050565b600060208201905081810360008301526158998161585d565b9050919050565b600081519050919050565b600081905092915050565b60006158c1826158a0565b6158cb81856158ab565b93506158db818560208601613afa565b80840191505092915050565b60006158f382846158b6565b91508190509291505056fea2646970667358221220788165ba385853cc5c0506ca5f2eb9c4271fd914ac1f0323959a2c476b1908aa64736f6c63430008090033",
  "linkReferences": {},
  "deployedLinkReferences": {}
}